{
  "_format": "hh-sol-artifact-1",
  "contractName": "TestNFT",
  "sourceName": "contracts/TestNFT.sol",
  "abi": [
    {
      "inputs": [
        {
          "internalType": "string",
          "name": "_name",
          "type": "string"
        },
        {
          "internalType": "string",
          "name": "_symbol",
          "type": "string"
        },
        {
          "internalType": "string",
          "name": "_initBaseURI",
          "type": "string"
        },
        {
          "internalType": "string",
          "name": "_initNotRevealedUri",
          "type": "string"
        }
      ],
      "stateMutability": "nonpayable",
      "type": "constructor"
    },
    {
      "anonymous": false,
      "inputs": [
        {
          "indexed": true,
          "internalType": "address",
          "name": "owner",
          "type": "address"
        },
        {
          "indexed": true,
          "internalType": "address",
          "name": "approved",
          "type": "address"
        },
        {
          "indexed": true,
          "internalType": "uint256",
          "name": "tokenId",
          "type": "uint256"
        }
      ],
      "name": "Approval",
      "type": "event"
    },
    {
      "anonymous": false,
      "inputs": [
        {
          "indexed": true,
          "internalType": "address",
          "name": "owner",
          "type": "address"
        },
        {
          "indexed": true,
          "internalType": "address",
          "name": "operator",
          "type": "address"
        },
        {
          "indexed": false,
          "internalType": "bool",
          "name": "approved",
          "type": "bool"
        }
      ],
      "name": "ApprovalForAll",
      "type": "event"
    },
    {
      "anonymous": false,
      "inputs": [
        {
          "indexed": true,
          "internalType": "address",
          "name": "previousOwner",
          "type": "address"
        },
        {
          "indexed": true,
          "internalType": "address",
          "name": "newOwner",
          "type": "address"
        }
      ],
      "name": "OwnershipTransferred",
      "type": "event"
    },
    {
      "anonymous": false,
      "inputs": [
        {
          "indexed": true,
          "internalType": "address",
          "name": "from",
          "type": "address"
        },
        {
          "indexed": true,
          "internalType": "address",
          "name": "to",
          "type": "address"
        },
        {
          "indexed": true,
          "internalType": "uint256",
          "name": "tokenId",
          "type": "uint256"
        }
      ],
      "name": "Transfer",
      "type": "event"
    },
    {
      "inputs": [
        {
          "internalType": "address",
          "name": "to",
          "type": "address"
        },
        {
          "internalType": "uint256",
          "name": "tokenId",
          "type": "uint256"
        }
      ],
      "name": "approve",
      "outputs": [],
      "stateMutability": "nonpayable",
      "type": "function"
    },
    {
      "inputs": [
        {
          "internalType": "address",
          "name": "owner",
          "type": "address"
        }
      ],
      "name": "balanceOf",
      "outputs": [
        {
          "internalType": "uint256",
          "name": "",
          "type": "uint256"
        }
      ],
      "stateMutability": "view",
      "type": "function"
    },
    {
      "inputs": [],
      "name": "baseExtension",
      "outputs": [
        {
          "internalType": "string",
          "name": "",
          "type": "string"
        }
      ],
      "stateMutability": "view",
      "type": "function"
    },
    {
      "inputs": [],
      "name": "cost",
      "outputs": [
        {
          "internalType": "uint256",
          "name": "",
          "type": "uint256"
        }
      ],
      "stateMutability": "view",
      "type": "function"
    },
    {
      "inputs": [
        {
          "internalType": "uint256",
          "name": "tokenId",
          "type": "uint256"
        }
      ],
      "name": "getApproved",
      "outputs": [
        {
          "internalType": "address",
          "name": "",
          "type": "address"
        }
      ],
      "stateMutability": "view",
      "type": "function"
    },
    {
      "inputs": [
        {
          "internalType": "address",
          "name": "owner",
          "type": "address"
        },
        {
          "internalType": "address",
          "name": "operator",
          "type": "address"
        }
      ],
      "name": "isApprovedForAll",
      "outputs": [
        {
          "internalType": "bool",
          "name": "",
          "type": "bool"
        }
      ],
      "stateMutability": "view",
      "type": "function"
    },
    {
      "inputs": [],
      "name": "maxMintAmount",
      "outputs": [
        {
          "internalType": "uint256",
          "name": "",
          "type": "uint256"
        }
      ],
      "stateMutability": "view",
      "type": "function"
    },
    {
      "inputs": [],
      "name": "maxSupply",
      "outputs": [
        {
          "internalType": "uint256",
          "name": "",
          "type": "uint256"
        }
      ],
      "stateMutability": "view",
      "type": "function"
    },
    {
      "inputs": [],
      "name": "name",
      "outputs": [
        {
          "internalType": "string",
          "name": "",
          "type": "string"
        }
      ],
      "stateMutability": "view",
      "type": "function"
    },
    {
      "inputs": [],
      "name": "notRevealedUri",
      "outputs": [
        {
          "internalType": "string",
          "name": "",
          "type": "string"
        }
      ],
      "stateMutability": "view",
      "type": "function"
    },
    {
      "inputs": [],
      "name": "owner",
      "outputs": [
        {
          "internalType": "address",
          "name": "",
          "type": "address"
        }
      ],
      "stateMutability": "view",
      "type": "function"
    },
    {
      "inputs": [
        {
          "internalType": "uint256",
          "name": "tokenId",
          "type": "uint256"
        }
      ],
      "name": "ownerOf",
      "outputs": [
        {
          "internalType": "address",
          "name": "",
          "type": "address"
        }
      ],
      "stateMutability": "view",
      "type": "function"
    },
    {
      "inputs": [
        {
          "internalType": "bool",
          "name": "_state",
          "type": "bool"
        }
      ],
      "name": "pausePublicMint",
      "outputs": [],
      "stateMutability": "nonpayable",
      "type": "function"
    },
    {
      "inputs": [
        {
          "internalType": "bool",
          "name": "_state",
          "type": "bool"
        }
      ],
      "name": "pauseWhiteListMint",
      "outputs": [],
      "stateMutability": "nonpayable",
      "type": "function"
    },
    {
      "inputs": [
        {
          "internalType": "uint256",
          "name": "_mintAmount",
          "type": "uint256"
        }
      ],
      "name": "publicMint",
      "outputs": [],
      "stateMutability": "payable",
      "type": "function"
    },
    {
      "inputs": [],
      "name": "publicMintPaused",
      "outputs": [
        {
          "internalType": "bool",
          "name": "",
          "type": "bool"
        }
      ],
      "stateMutability": "view",
      "type": "function"
    },
    {
      "inputs": [],
      "name": "renounceOwnership",
      "outputs": [],
      "stateMutability": "nonpayable",
      "type": "function"
    },
    {
      "inputs": [],
      "name": "reveal",
      "outputs": [],
      "stateMutability": "nonpayable",
      "type": "function"
    },
    {
      "inputs": [],
      "name": "revealed",
      "outputs": [
        {
          "internalType": "bool",
          "name": "",
          "type": "bool"
        }
      ],
      "stateMutability": "view",
      "type": "function"
    },
    {
      "inputs": [
        {
          "internalType": "address",
          "name": "from",
          "type": "address"
        },
        {
          "internalType": "address",
          "name": "to",
          "type": "address"
        },
        {
          "internalType": "uint256",
          "name": "tokenId",
          "type": "uint256"
        }
      ],
      "name": "safeTransferFrom",
      "outputs": [],
      "stateMutability": "nonpayable",
      "type": "function"
    },
    {
      "inputs": [
        {
          "internalType": "address",
          "name": "from",
          "type": "address"
        },
        {
          "internalType": "address",
          "name": "to",
          "type": "address"
        },
        {
          "internalType": "uint256",
          "name": "tokenId",
          "type": "uint256"
        },
        {
          "internalType": "bytes",
          "name": "_data",
          "type": "bytes"
        }
      ],
      "name": "safeTransferFrom",
      "outputs": [],
      "stateMutability": "nonpayable",
      "type": "function"
    },
    {
      "inputs": [
        {
          "internalType": "address",
          "name": "operator",
          "type": "address"
        },
        {
          "internalType": "bool",
          "name": "approved",
          "type": "bool"
        }
      ],
      "name": "setApprovalForAll",
      "outputs": [],
      "stateMutability": "nonpayable",
      "type": "function"
    },
    {
      "inputs": [
        {
          "internalType": "string",
          "name": "_newBaseExtension",
          "type": "string"
        }
      ],
      "name": "setBaseExtension",
      "outputs": [],
      "stateMutability": "nonpayable",
      "type": "function"
    },
    {
      "inputs": [
        {
          "internalType": "string",
          "name": "_newBaseURI",
          "type": "string"
        }
      ],
      "name": "setBaseURI",
      "outputs": [],
      "stateMutability": "nonpayable",
      "type": "function"
    },
    {
      "inputs": [
        {
          "internalType": "uint256",
          "name": "_newCost",
          "type": "uint256"
        }
      ],
      "name": "setCost",
      "outputs": [],
      "stateMutability": "nonpayable",
      "type": "function"
    },
    {
      "inputs": [
        {
          "internalType": "string",
          "name": "_notRevealedURI",
          "type": "string"
        }
      ],
      "name": "setNotRevealedURI",
      "outputs": [],
      "stateMutability": "nonpayable",
      "type": "function"
    },
    {
      "inputs": [
        {
          "internalType": "bytes32",
          "name": "merkleRoot",
          "type": "bytes32"
        }
      ],
      "name": "setWhiteListMerkleRoot",
      "outputs": [],
      "stateMutability": "nonpayable",
      "type": "function"
    },
    {
      "inputs": [
        {
          "internalType": "uint256",
          "name": "_newmaxMintAmount",
          "type": "uint256"
        }
      ],
      "name": "setmaxMintAmount",
      "outputs": [],
      "stateMutability": "nonpayable",
      "type": "function"
    },
    {
      "inputs": [
        {
          "internalType": "bytes4",
          "name": "interfaceId",
          "type": "bytes4"
        }
      ],
      "name": "supportsInterface",
      "outputs": [
        {
          "internalType": "bool",
          "name": "",
          "type": "bool"
        }
      ],
      "stateMutability": "view",
      "type": "function"
    },
    {
      "inputs": [],
      "name": "symbol",
      "outputs": [
        {
          "internalType": "string",
          "name": "",
          "type": "string"
        }
      ],
      "stateMutability": "view",
      "type": "function"
    },
    {
      "inputs": [
        {
          "internalType": "uint256",
          "name": "index",
          "type": "uint256"
        }
      ],
      "name": "tokenByIndex",
      "outputs": [
        {
          "internalType": "uint256",
          "name": "",
          "type": "uint256"
        }
      ],
      "stateMutability": "view",
      "type": "function"
    },
    {
      "inputs": [
        {
          "internalType": "address",
          "name": "owner",
          "type": "address"
        },
        {
          "internalType": "uint256",
          "name": "index",
          "type": "uint256"
        }
      ],
      "name": "tokenOfOwnerByIndex",
      "outputs": [
        {
          "internalType": "uint256",
          "name": "",
          "type": "uint256"
        }
      ],
      "stateMutability": "view",
      "type": "function"
    },
    {
      "inputs": [
        {
          "internalType": "uint256",
          "name": "tokenId",
          "type": "uint256"
        }
      ],
      "name": "tokenURI",
      "outputs": [
        {
          "internalType": "string",
          "name": "",
          "type": "string"
        }
      ],
      "stateMutability": "view",
      "type": "function"
    },
    {
      "inputs": [],
      "name": "totalSupply",
      "outputs": [
        {
          "internalType": "uint256",
          "name": "",
          "type": "uint256"
        }
      ],
      "stateMutability": "view",
      "type": "function"
    },
    {
      "inputs": [
        {
          "internalType": "address",
          "name": "from",
          "type": "address"
        },
        {
          "internalType": "address",
          "name": "to",
          "type": "address"
        },
        {
          "internalType": "uint256",
          "name": "tokenId",
          "type": "uint256"
        }
      ],
      "name": "transferFrom",
      "outputs": [],
      "stateMutability": "nonpayable",
      "type": "function"
    },
    {
      "inputs": [
        {
          "internalType": "address",
          "name": "newOwner",
          "type": "address"
        }
      ],
      "name": "transferOwnership",
      "outputs": [],
      "stateMutability": "nonpayable",
      "type": "function"
    },
    {
      "inputs": [
        {
          "internalType": "address",
          "name": "_owner",
          "type": "address"
        }
      ],
      "name": "walletOfOwner",
      "outputs": [
        {
          "internalType": "uint256[]",
          "name": "",
          "type": "uint256[]"
        }
      ],
      "stateMutability": "view",
      "type": "function"
    },
    {
      "inputs": [],
      "name": "whiteListMerkleRoot",
      "outputs": [
        {
          "internalType": "bytes32",
          "name": "",
          "type": "bytes32"
        }
      ],
      "stateMutability": "view",
      "type": "function"
    },
    {
      "inputs": [
        {
          "internalType": "uint256",
          "name": "_mintAmount",
          "type": "uint256"
        },
        {
          "internalType": "bytes32[]",
          "name": "merkleProof",
          "type": "bytes32[]"
        }
      ],
      "name": "whiteListMint",
      "outputs": [],
      "stateMutability": "payable",
      "type": "function"
    },
    {
      "inputs": [],
      "name": "whiteListMintPaused",
      "outputs": [
        {
          "internalType": "bool",
          "name": "",
          "type": "bool"
        }
      ],
      "stateMutability": "view",
      "type": "function"
    },
    {
      "inputs": [],
      "name": "withdrawAll",
      "outputs": [],
      "stateMutability": "payable",
      "type": "function"
    }
  ],
  "bytecode": "0x60806040526040518060400160405280600581526020017f2e6a736f6e000000000000000000000000000000000000000000000000000000815250600c908051906020019062000051929190620003bc565b5066470de4df820000600d55610320600e556002600f556001601060006101000a81548160ff0219169083151502179055506000601060016101000a81548160ff0219169083151502179055506000601060026101000a81548160ff021916908315150217905550348015620000c657600080fd5b50604051620054f4380380620054f48339818101604052810190620000ec9190620004de565b8383816000908051906020019062000106929190620003bc565b5080600190805190602001906200011f929190620003bc565b50505062000142620001366200016e60201b60201c565b6200017660201b60201c565b62000153826200023c60201b60201c565b6200016481620002e760201b60201c565b50505050620007a1565b600033905090565b6000600a60009054906101000a900473ffffffffffffffffffffffffffffffffffffffff16905081600a60006101000a81548173ffffffffffffffffffffffffffffffffffffffff021916908373ffffffffffffffffffffffffffffffffffffffff1602179055508173ffffffffffffffffffffffffffffffffffffffff168173ffffffffffffffffffffffffffffffffffffffff167f8be0079c531659141344cd1fd0a4f28419497f9722a3daafe3b4186f6b6457e060405160405180910390a35050565b6200024c6200016e60201b60201c565b73ffffffffffffffffffffffffffffffffffffffff16620002726200039260201b60201c565b73ffffffffffffffffffffffffffffffffffffffff1614620002cb576040517f08c379a0000000000000000000000000000000000000000000000000000000008152600401620002c290620005d5565b60405180910390fd5b80600b9080519060200190620002e3929190620003bc565b5050565b620002f76200016e60201b60201c565b73ffffffffffffffffffffffffffffffffffffffff166200031d6200039260201b60201c565b73ffffffffffffffffffffffffffffffffffffffff161462000376576040517f08c379a00000000000000000000000000000000000000000000000000000000081526004016200036d90620005d5565b60405180910390fd5b80601190805190602001906200038e929190620003bc565b5050565b6000600a60009054906101000a900473ffffffffffffffffffffffffffffffffffffffff16905090565b828054620003ca906200069d565b90600052602060002090601f016020900481019282620003ee57600085556200043a565b82601f106200040957805160ff19168380011785556200043a565b828001600101855582156200043a579182015b82811115620004395782518255916020019190600101906200041c565b5b5090506200044991906200044d565b5090565b5b80821115620004685760008160009055506001016200044e565b5090565b6000620004836200047d8462000620565b620005f7565b9050828152602081018484840111156200049c57600080fd5b620004a984828562000667565b509392505050565b600082601f830112620004c357600080fd5b8151620004d58482602086016200046c565b91505092915050565b60008060008060808587031215620004f557600080fd5b600085015167ffffffffffffffff8111156200051057600080fd5b6200051e87828801620004b1565b945050602085015167ffffffffffffffff8111156200053c57600080fd5b6200054a87828801620004b1565b935050604085015167ffffffffffffffff8111156200056857600080fd5b6200057687828801620004b1565b925050606085015167ffffffffffffffff8111156200059457600080fd5b620005a287828801620004b1565b91505092959194509250565b6000620005bd60208362000656565b9150620005ca8262000778565b602082019050919050565b60006020820190508181036000830152620005f081620005ae565b9050919050565b60006200060362000616565b9050620006118282620006d3565b919050565b6000604051905090565b600067ffffffffffffffff8211156200063e576200063d62000738565b5b620006498262000767565b9050602081019050919050565b600082825260208201905092915050565b60005b83811015620006875780820151818401526020810190506200066a565b8381111562000697576000848401525b50505050565b60006002820490506001821680620006b657607f821691505b60208210811415620006cd57620006cc62000709565b5b50919050565b620006de8262000767565b810181811067ffffffffffffffff821117156200070057620006ff62000738565b5b80604052505050565b7f4e487b7100000000000000000000000000000000000000000000000000000000600052602260045260246000fd5b7f4e487b7100000000000000000000000000000000000000000000000000000000600052604160045260246000fd5b6000601f19601f8301169050919050565b7f4f776e61626c653a2063616c6c6572206973206e6f7420746865206f776e6572600082015250565b614d4380620007b16000396000f3fe6080604052600436106102465760003560e01c80635183022711610139578063a475b5dd116100b6578063d5abeb011161007a578063d5abeb0114610841578063da3ef23f1461086c578063e08e65ea14610895578063e985e9c5146108be578063f2c4ce1e146108fb578063f2fde38b1461092457610246565b8063a475b5dd14610770578063b19c92a214610787578063b88d4fde146107b0578063c6682862146107d9578063c87b56dd1461080457610246565b80637f00c7a6116100fd5780637f00c7a6146106be578063853828b6146106e75780638da5cb5b146106f157806395d89b411461071c578063a22cb4651461074757610246565b806351830227146105d957806355f804b3146106045780636352211e1461062d57806370a082311461066a578063715018a6146106a757610246565b806323b872dd116101c757806342842e0e1161018b57806342842e0e146104e4578063438b63001461050d57806344a0d68a1461054a5780634ac84569146105735780634f6ccce71461059c57610246565b806323b872dd1461040c5780632db11544146104355780632f745c591461045157806333d9d5fd1461048e57806334b6ab1a146104b957610246565b8063118768751161020e578063118768751461034457806313faede61461036057806318160ddd1461038b5780631be58064146103b6578063239c70ae146103e157610246565b806301ffc9a71461024b57806306fdde0314610288578063081812fc146102b3578063081c8c44146102f0578063095ea7b31461031b575b600080fd5b34801561025757600080fd5b50610272600480360381019061026d91906137d3565b61094d565b60405161027f9190613efb565b60405180910390f35b34801561029457600080fd5b5061029d6109c7565b6040516102aa9190613f31565b60405180910390f35b3480156102bf57600080fd5b506102da60048036038101906102d59190613866565b610a59565b6040516102e79190613e72565b60405180910390f35b3480156102fc57600080fd5b50610305610ade565b6040516103129190613f31565b60405180910390f35b34801561032757600080fd5b50610342600480360381019061033d9190613745565b610b6c565b005b61035e6004803603810190610359919061388f565b610c84565b005b34801561036c57600080fd5b50610375610e2b565b6040516103829190614213565b60405180910390f35b34801561039757600080fd5b506103a0610e31565b6040516103ad9190614213565b60405180910390f35b3480156103c257600080fd5b506103cb610e3e565b6040516103d89190613efb565b60405180910390f35b3480156103ed57600080fd5b506103f6610e51565b6040516104039190614213565b60405180910390f35b34801561041857600080fd5b50610433600480360381019061042e919061363f565b610e57565b005b61044f600480360381019061044a9190613866565b610eb7565b005b34801561045d57600080fd5b5061047860048036038101906104739190613745565b611045565b6040516104859190614213565b60405180910390f35b34801561049a57600080fd5b506104a36110ea565b6040516104b09190613efb565b60405180910390f35b3480156104c557600080fd5b506104ce6110fd565b6040516104db9190613f16565b60405180910390f35b3480156104f057600080fd5b5061050b6004803603810190610506919061363f565b611103565b005b34801561051957600080fd5b50610534600480360381019061052f91906135da565b611123565b6040516105419190613ed9565b60405180910390f35b34801561055657600080fd5b50610571600480360381019061056c9190613866565b61121d565b005b34801561057f57600080fd5b5061059a60048036038101906105959190613781565b6112a3565b005b3480156105a857600080fd5b506105c360048036038101906105be9190613866565b61133c565b6040516105d09190614213565b60405180910390f35b3480156105e557600080fd5b506105ee6113d3565b6040516105fb9190613efb565b60405180910390f35b34801561061057600080fd5b5061062b60048036038101906106269190613825565b6113e6565b005b34801561063957600080fd5b50610654600480360381019061064f9190613866565b61147c565b6040516106619190613e72565b60405180910390f35b34801561067657600080fd5b50610691600480360381019061068c91906135da565b61152e565b60405161069e9190614213565b60405180910390f35b3480156106b357600080fd5b506106bc6115e6565b005b3480156106ca57600080fd5b506106e560048036038101906106e09190613866565b61166e565b005b6106ef6116f4565b005b3480156106fd57600080fd5b5061070661181b565b6040516107139190613e72565b60405180910390f35b34801561072857600080fd5b50610731611845565b60405161073e9190613f31565b60405180910390f35b34801561075357600080fd5b5061076e60048036038101906107699190613709565b6118d7565b005b34801561077c57600080fd5b506107856118ed565b005b34801561079357600080fd5b506107ae60048036038101906107a99190613781565b611986565b005b3480156107bc57600080fd5b506107d760048036038101906107d2919061368e565b611a1f565b005b3480156107e557600080fd5b506107ee611a81565b6040516107fb9190613f31565b60405180910390f35b34801561081057600080fd5b5061082b60048036038101906108269190613866565b611b0f565b6040516108389190613f31565b60405180910390f35b34801561084d57600080fd5b50610856611c68565b6040516108639190614213565b60405180910390f35b34801561087857600080fd5b50610893600480360381019061088e9190613825565b611c6e565b005b3480156108a157600080fd5b506108bc60048036038101906108b791906137aa565b611d04565b005b3480156108ca57600080fd5b506108e560048036038101906108e09190613603565b611d8a565b6040516108f29190613efb565b60405180910390f35b34801561090757600080fd5b50610922600480360381019061091d9190613825565b611e1e565b005b34801561093057600080fd5b5061094b600480360381019061094691906135da565b611eb4565b005b60007f780e9d63000000000000000000000000000000000000000000000000000000007bffffffffffffffffffffffffffffffffffffffffffffffffffffffff1916827bffffffffffffffffffffffffffffffffffffffffffffffffffffffff191614806109c057506109bf82611fac565b5b9050919050565b6060600080546109d69061451b565b80601f0160208091040260200160405190810160405280929190818152602001828054610a029061451b565b8015610a4f5780601f10610a2457610100808354040283529160200191610a4f565b820191906000526020600020905b815481529060010190602001808311610a3257829003601f168201915b5050505050905090565b6000610a648261208e565b610aa3576040517f08c379a0000000000000000000000000000000000000000000000000000000008152600401610a9a90614113565b60405180910390fd5b6004600083815260200190815260200160002060009054906101000a900473ffffffffffffffffffffffffffffffffffffffff169050919050565b60118054610aeb9061451b565b80601f0160208091040260200160405190810160405280929190818152602001828054610b179061451b565b8015610b645780601f10610b3957610100808354040283529160200191610b64565b820191906000526020600020905b815481529060010190602001808311610b4757829003601f168201915b505050505081565b6000610b778261147c565b90508073ffffffffffffffffffffffffffffffffffffffff168373ffffffffffffffffffffffffffffffffffffffff161415610be8576040517f08c379a0000000000000000000000000000000000000000000000000000000008152600401610bdf90614193565b60405180910390fd5b8073ffffffffffffffffffffffffffffffffffffffff16610c076120fa565b73ffffffffffffffffffffffffffffffffffffffff161480610c365750610c3581610c306120fa565b611d8a565b5b610c75576040517f08c379a0000000000000000000000000000000000000000000000000000000008152600401610c6c90614073565b60405180910390fd5b610c7f8383612102565b505050565b8181601254610cfb838380806020026020016040519081016040528093929190818152602001838360200280828437600081840152601f19601f820116905080830192505050505050508233604051602001610ce09190613dfa565b604051602081830303815290604052805190602001206121bb565b610d3a576040517f08c379a0000000000000000000000000000000000000000000000000000000008152600401610d3190614053565b60405180910390fd5b6000610d44610e31565b9050601060009054906101000a900460ff1615610d6057600080fd5b60008711610d6d57600080fd5b600f54871115610d7c57600080fd5b600e548782610d8b9190614346565b1115610d9657600080fd5b610d9e61181b565b73ffffffffffffffffffffffffffffffffffffffff163373ffffffffffffffffffffffffffffffffffffffff1614610deb5786600d54610dde91906143cd565b341015610dea57600080fd5b5b6000600190505b878111610e2157610e0e338284610e099190614346565b6121d2565b8080610e199061457e565b915050610df2565b5050505050505050565b600d5481565b6000600880549050905090565b601060009054906101000a900460ff1681565b600f5481565b610e68610e626120fa565b826121f0565b610ea7576040517f08c379a0000000000000000000000000000000000000000000000000000000008152600401610e9e906141d3565b60405180910390fd5b610eb28383836122ce565b505050565b6000610ec1610e31565b9050601060019054906101000a900460ff1615610f13576040517f08c379a0000000000000000000000000000000000000000000000000000000008152600401610f0a90614093565b60405180910390fd5b60008211610f56576040517f08c379a0000000000000000000000000000000000000000000000000000000008152600401610f4d90614013565b60405180910390fd5b600f54821115610f9b576040517f08c379a0000000000000000000000000000000000000000000000000000000008152600401610f92906141b3565b60405180910390fd5b600e548282610faa9190614346565b1115610fb557600080fd5b610fbd61181b565b73ffffffffffffffffffffffffffffffffffffffff163373ffffffffffffffffffffffffffffffffffffffff161461100a5781600d54610ffd91906143cd565b34101561100957600080fd5b5b6000600190505b8281116110405761102d3382846110289190614346565b6121d2565b80806110389061457e565b915050611011565b505050565b60006110508361152e565b8210611091576040517f08c379a000000000000000000000000000000000000000000000000000000000815260040161108890613f53565b60405180910390fd5b600660008473ffffffffffffffffffffffffffffffffffffffff1673ffffffffffffffffffffffffffffffffffffffff168152602001908152602001600020600083815260200190815260200160002054905092915050565b601060019054906101000a900460ff1681565b60125481565b61111e83838360405180602001604052806000815250611a1f565b505050565b606060006111308361152e565b905060008167ffffffffffffffff811115611174577f4e487b7100000000000000000000000000000000000000000000000000000000600052604160045260246000fd5b6040519080825280602002602001820160405280156111a25781602001602082028036833780820191505090505b50905060005b82811015611212576111ba8582611045565b8282815181106111f3577f4e487b7100000000000000000000000000000000000000000000000000000000600052603260045260246000fd5b602002602001018181525050808061120a9061457e565b9150506111a8565b508092505050919050565b6112256120fa565b73ffffffffffffffffffffffffffffffffffffffff1661124361181b565b73ffffffffffffffffffffffffffffffffffffffff1614611299576040517f08c379a000000000000000000000000000000000000000000000000000000000815260040161129090614133565b60405180910390fd5b80600d8190555050565b6112ab6120fa565b73ffffffffffffffffffffffffffffffffffffffff166112c961181b565b73ffffffffffffffffffffffffffffffffffffffff161461131f576040517f08c379a000000000000000000000000000000000000000000000000000000000815260040161131690614133565b60405180910390fd5b80601060006101000a81548160ff02191690831515021790555050565b6000611346610e31565b8210611387576040517f08c379a000000000000000000000000000000000000000000000000000000000815260040161137e906141f3565b60405180910390fd5b600882815481106113c1577f4e487b7100000000000000000000000000000000000000000000000000000000600052603260045260246000fd5b90600052602060002001549050919050565b601060029054906101000a900460ff1681565b6113ee6120fa565b73ffffffffffffffffffffffffffffffffffffffff1661140c61181b565b73ffffffffffffffffffffffffffffffffffffffff1614611462576040517f08c379a000000000000000000000000000000000000000000000000000000000815260040161145990614133565b60405180910390fd5b80600b908051906020019061147892919061339f565b5050565b6000806002600084815260200190815260200160002060009054906101000a900473ffffffffffffffffffffffffffffffffffffffff169050600073ffffffffffffffffffffffffffffffffffffffff168173ffffffffffffffffffffffffffffffffffffffff161415611525576040517f08c379a000000000000000000000000000000000000000000000000000000000815260040161151c906140d3565b60405180910390fd5b80915050919050565b60008073ffffffffffffffffffffffffffffffffffffffff168273ffffffffffffffffffffffffffffffffffffffff16141561159f576040517f08c379a0000000000000000000000000000000000000000000000000000000008152600401611596906140b3565b60405180910390fd5b600360008373ffffffffffffffffffffffffffffffffffffffff1673ffffffffffffffffffffffffffffffffffffffff168152602001908152602001600020549050919050565b6115ee6120fa565b73ffffffffffffffffffffffffffffffffffffffff1661160c61181b565b73ffffffffffffffffffffffffffffffffffffffff1614611662576040517f08c379a000000000000000000000000000000000000000000000000000000000815260040161165990614133565b60405180910390fd5b61166c600061252a565b565b6116766120fa565b73ffffffffffffffffffffffffffffffffffffffff1661169461181b565b73ffffffffffffffffffffffffffffffffffffffff16146116ea576040517f08c379a00000000000000000000000000000000000000000000000000000000081526004016116e190614133565b60405180910390fd5b80600f8190555050565b6116fc6120fa565b73ffffffffffffffffffffffffffffffffffffffff1661171a61181b565b73ffffffffffffffffffffffffffffffffffffffff1614611770576040517f08c379a000000000000000000000000000000000000000000000000000000000815260040161176790614133565b60405180910390fd5b600060024761177f919061439c565b905061178961181b565b73ffffffffffffffffffffffffffffffffffffffff166108fc829081150290604051600060405180830381858888f193505050506117c657600080fd5b73121684501d2fb3ffd92e7a021d63f51b85504c0873ffffffffffffffffffffffffffffffffffffffff166108fc829081150290604051600060405180830381858888f1935050505061181857600080fd5b50565b6000600a60009054906101000a900473ffffffffffffffffffffffffffffffffffffffff16905090565b6060600180546118549061451b565b80601f01602080910402602001604051908101604052809291908181526020018280546118809061451b565b80156118cd5780601f106118a2576101008083540402835291602001916118cd565b820191906000526020600020905b8154815290600101906020018083116118b057829003601f168201915b5050505050905090565b6118e96118e26120fa565b83836125f0565b5050565b6118f56120fa565b73ffffffffffffffffffffffffffffffffffffffff1661191361181b565b73ffffffffffffffffffffffffffffffffffffffff1614611969576040517f08c379a000000000000000000000000000000000000000000000000000000000815260040161196090614133565b60405180910390fd5b6001601060026101000a81548160ff021916908315150217905550565b61198e6120fa565b73ffffffffffffffffffffffffffffffffffffffff166119ac61181b565b73ffffffffffffffffffffffffffffffffffffffff1614611a02576040517f08c379a00000000000000000000000000000000000000000000000000000000081526004016119f990614133565b60405180910390fd5b80601060016101000a81548160ff02191690831515021790555050565b611a30611a2a6120fa565b836121f0565b611a6f576040517f08c379a0000000000000000000000000000000000000000000000000000000008152600401611a66906141d3565b60405180910390fd5b611a7b8484848461275d565b50505050565b600c8054611a8e9061451b565b80601f0160208091040260200160405190810160405280929190818152602001828054611aba9061451b565b8015611b075780601f10611adc57610100808354040283529160200191611b07565b820191906000526020600020905b815481529060010190602001808311611aea57829003601f168201915b505050505081565b6060611b1a8261208e565b611b59576040517f08c379a0000000000000000000000000000000000000000000000000000000008152600401611b5090614173565b60405180910390fd5b60001515601060029054906101000a900460ff1615151415611c075760118054611b829061451b565b80601f0160208091040260200160405190810160405280929190818152602001828054611bae9061451b565b8015611bfb5780601f10611bd057610100808354040283529160200191611bfb565b820191906000526020600020905b815481529060010190602001808311611bde57829003601f168201915b50505050509050611c63565b6000611c116127b9565b90506000815111611c315760405180602001604052806000815250611c5f565b80611c3b8461284b565b600c604051602001611c4f93929190613e41565b6040516020818303038152906040525b9150505b919050565b600e5481565b611c766120fa565b73ffffffffffffffffffffffffffffffffffffffff16611c9461181b565b73ffffffffffffffffffffffffffffffffffffffff1614611cea576040517f08c379a0000000000000000000000000000000000000000000000000000000008152600401611ce190614133565b60405180910390fd5b80600c9080519060200190611d0092919061339f565b5050565b611d0c6120fa565b73ffffffffffffffffffffffffffffffffffffffff16611d2a61181b565b73ffffffffffffffffffffffffffffffffffffffff1614611d80576040517f08c379a0000000000000000000000000000000000000000000000000000000008152600401611d7790614133565b60405180910390fd5b8060128190555050565b6000600560008473ffffffffffffffffffffffffffffffffffffffff1673ffffffffffffffffffffffffffffffffffffffff16815260200190815260200160002060008373ffffffffffffffffffffffffffffffffffffffff1673ffffffffffffffffffffffffffffffffffffffff16815260200190815260200160002060009054906101000a900460ff16905092915050565b611e266120fa565b73ffffffffffffffffffffffffffffffffffffffff16611e4461181b565b73ffffffffffffffffffffffffffffffffffffffff1614611e9a576040517f08c379a0000000000000000000000000000000000000000000000000000000008152600401611e9190614133565b60405180910390fd5b8060119080519060200190611eb092919061339f565b5050565b611ebc6120fa565b73ffffffffffffffffffffffffffffffffffffffff16611eda61181b565b73ffffffffffffffffffffffffffffffffffffffff1614611f30576040517f08c379a0000000000000000000000000000000000000000000000000000000008152600401611f2790614133565b60405180910390fd5b600073ffffffffffffffffffffffffffffffffffffffff168173ffffffffffffffffffffffffffffffffffffffff161415611fa0576040517f08c379a0000000000000000000000000000000000000000000000000000000008152600401611f9790613f93565b60405180910390fd5b611fa98161252a565b50565b60007f80ac58cd000000000000000000000000000000000000000000000000000000007bffffffffffffffffffffffffffffffffffffffffffffffffffffffff1916827bffffffffffffffffffffffffffffffffffffffffffffffffffffffff1916148061207757507f5b5e139f000000000000000000000000000000000000000000000000000000007bffffffffffffffffffffffffffffffffffffffffffffffffffffffff1916827bffffffffffffffffffffffffffffffffffffffffffffffffffffffff1916145b806120875750612086826129f8565b5b9050919050565b60008073ffffffffffffffffffffffffffffffffffffffff166002600084815260200190815260200160002060009054906101000a900473ffffffffffffffffffffffffffffffffffffffff1673ffffffffffffffffffffffffffffffffffffffff1614159050919050565b600033905090565b816004600083815260200190815260200160002060006101000a81548173ffffffffffffffffffffffffffffffffffffffff021916908373ffffffffffffffffffffffffffffffffffffffff160217905550808273ffffffffffffffffffffffffffffffffffffffff166121758361147c565b73ffffffffffffffffffffffffffffffffffffffff167f8c5be1e5ebec7d5bd14f71427d1e84f3dd0314c0f7b2291e5b200ac8c7c3b92560405160405180910390a45050565b6000826121c88584612a62565b1490509392505050565b6121ec828260405180602001604052806000815250612b3b565b5050565b60006121fb8261208e565b61223a576040517f08c379a000000000000000000000000000000000000000000000000000000000815260040161223190614033565b60405180910390fd5b60006122458361147c565b90508073ffffffffffffffffffffffffffffffffffffffff168473ffffffffffffffffffffffffffffffffffffffff1614806122b457508373ffffffffffffffffffffffffffffffffffffffff1661229c84610a59565b73ffffffffffffffffffffffffffffffffffffffff16145b806122c557506122c48185611d8a565b5b91505092915050565b8273ffffffffffffffffffffffffffffffffffffffff166122ee8261147c565b73ffffffffffffffffffffffffffffffffffffffff1614612344576040517f08c379a000000000000000000000000000000000000000000000000000000000815260040161233b90614153565b60405180910390fd5b600073ffffffffffffffffffffffffffffffffffffffff168273ffffffffffffffffffffffffffffffffffffffff1614156123b4576040517f08c379a00000000000000000000000000000000000000000000000000000000081526004016123ab90613fd3565b60405180910390fd5b6123bf838383612b96565b6123ca600082612102565b6001600360008573ffffffffffffffffffffffffffffffffffffffff1673ffffffffffffffffffffffffffffffffffffffff168152602001908152602001600020600082825461241a9190614427565b925050819055506001600360008473ffffffffffffffffffffffffffffffffffffffff1673ffffffffffffffffffffffffffffffffffffffff16815260200190815260200160002060008282546124719190614346565b92505081905550816002600083815260200190815260200160002060006101000a81548173ffffffffffffffffffffffffffffffffffffffff021916908373ffffffffffffffffffffffffffffffffffffffff160217905550808273ffffffffffffffffffffffffffffffffffffffff168473ffffffffffffffffffffffffffffffffffffffff167fddf252ad1be2c89b69c2b068fc378daa952ba7f163c4a11628f55a4df523b3ef60405160405180910390a4505050565b6000600a60009054906101000a900473ffffffffffffffffffffffffffffffffffffffff16905081600a60006101000a81548173ffffffffffffffffffffffffffffffffffffffff021916908373ffffffffffffffffffffffffffffffffffffffff1602179055508173ffffffffffffffffffffffffffffffffffffffff168173ffffffffffffffffffffffffffffffffffffffff167f8be0079c531659141344cd1fd0a4f28419497f9722a3daafe3b4186f6b6457e060405160405180910390a35050565b8173ffffffffffffffffffffffffffffffffffffffff168373ffffffffffffffffffffffffffffffffffffffff16141561265f576040517f08c379a000000000000000000000000000000000000000000000000000000000815260040161265690613ff3565b60405180910390fd5b80600560008573ffffffffffffffffffffffffffffffffffffffff1673ffffffffffffffffffffffffffffffffffffffff16815260200190815260200160002060008473ffffffffffffffffffffffffffffffffffffffff1673ffffffffffffffffffffffffffffffffffffffff16815260200190815260200160002060006101000a81548160ff0219169083151502179055508173ffffffffffffffffffffffffffffffffffffffff168373ffffffffffffffffffffffffffffffffffffffff167f17307eab39ab6107e8899845ad3d59bd9653f200f220920489ca2b5937696c31836040516127509190613efb565b60405180910390a3505050565b6127688484846122ce565b61277484848484612caa565b6127b3576040517f08c379a00000000000000000000000000000000000000000000000000000000081526004016127aa90613f73565b60405180910390fd5b50505050565b6060600b80546127c89061451b565b80601f01602080910402602001604051908101604052809291908181526020018280546127f49061451b565b80156128415780601f1061281657610100808354040283529160200191612841565b820191906000526020600020905b81548152906001019060200180831161282457829003601f168201915b5050505050905090565b60606000821415612893576040518060400160405280600181526020017f300000000000000000000000000000000000000000000000000000000000000081525090506129f3565b600082905060005b600082146128c55780806128ae9061457e565b915050600a826128be919061439c565b915061289b565b60008167ffffffffffffffff811115612907577f4e487b7100000000000000000000000000000000000000000000000000000000600052604160045260246000fd5b6040519080825280601f01601f1916602001820160405280156129395781602001600182028036833780820191505090505b5090505b600085146129ec576001826129529190614427565b9150600a8561296191906145f5565b603061296d9190614346565b60f81b8183815181106129a9577f4e487b7100000000000000000000000000000000000000000000000000000000600052603260045260246000fd5b60200101907effffffffffffffffffffffffffffffffffffffffffffffffffffffffffffff1916908160001a905350600a856129e5919061439c565b945061293d565b8093505050505b919050565b60007f01ffc9a7000000000000000000000000000000000000000000000000000000007bffffffffffffffffffffffffffffffffffffffffffffffffffffffff1916827bffffffffffffffffffffffffffffffffffffffffffffffffffffffff1916149050919050565b60008082905060005b8451811015612b30576000858281518110612aaf577f4e487b7100000000000000000000000000000000000000000000000000000000600052603260045260246000fd5b60200260200101519050808311612af0578281604051602001612ad3929190613e15565b604051602081830303815290604052805190602001209250612b1c565b8083604051602001612b03929190613e15565b6040516020818303038152906040528051906020012092505b508080612b289061457e565b915050612a6b565b508091505092915050565b612b458383612e41565b612b526000848484612caa565b612b91576040517f08c379a0000000000000000000000000000000000000000000000000000000008152600401612b8890613f73565b60405180910390fd5b505050565b612ba183838361300f565b600073ffffffffffffffffffffffffffffffffffffffff168373ffffffffffffffffffffffffffffffffffffffff161415612be457612bdf81613014565b612c23565b8173ffffffffffffffffffffffffffffffffffffffff168373ffffffffffffffffffffffffffffffffffffffff1614612c2257612c21838261305d565b5b5b600073ffffffffffffffffffffffffffffffffffffffff168273ffffffffffffffffffffffffffffffffffffffff161415612c6657612c61816131ca565b612ca5565b8273ffffffffffffffffffffffffffffffffffffffff168273ffffffffffffffffffffffffffffffffffffffff1614612ca457612ca3828261330d565b5b5b505050565b6000612ccb8473ffffffffffffffffffffffffffffffffffffffff1661338c565b15612e34578373ffffffffffffffffffffffffffffffffffffffff1663150b7a02612cf46120fa565b8786866040518563ffffffff1660e01b8152600401612d169493929190613e8d565b602060405180830381600087803b158015612d3057600080fd5b505af1925050508015612d6157506040513d601f19601f82011682018060405250810190612d5e91906137fc565b60015b612de4573d8060008114612d91576040519150601f19603f3d011682016040523d82523d6000602084013e612d96565b606091505b50600081511415612ddc576040517f08c379a0000000000000000000000000000000000000000000000000000000008152600401612dd390613f73565b60405180910390fd5b805181602001fd5b63150b7a0260e01b7bffffffffffffffffffffffffffffffffffffffffffffffffffffffff1916817bffffffffffffffffffffffffffffffffffffffffffffffffffffffff191614915050612e39565b600190505b949350505050565b600073ffffffffffffffffffffffffffffffffffffffff168273ffffffffffffffffffffffffffffffffffffffff161415612eb1576040517f08c379a0000000000000000000000000000000000000000000000000000000008152600401612ea8906140f3565b60405180910390fd5b612eba8161208e565b15612efa576040517f08c379a0000000000000000000000000000000000000000000000000000000008152600401612ef190613fb3565b60405180910390fd5b612f0660008383612b96565b6001600360008473ffffffffffffffffffffffffffffffffffffffff1673ffffffffffffffffffffffffffffffffffffffff1681526020019081526020016000206000828254612f569190614346565b92505081905550816002600083815260200190815260200160002060006101000a81548173ffffffffffffffffffffffffffffffffffffffff021916908373ffffffffffffffffffffffffffffffffffffffff160217905550808273ffffffffffffffffffffffffffffffffffffffff16600073ffffffffffffffffffffffffffffffffffffffff167fddf252ad1be2c89b69c2b068fc378daa952ba7f163c4a11628f55a4df523b3ef60405160405180910390a45050565b505050565b6008805490506009600083815260200190815260200160002081905550600881908060018154018082558091505060019003906000526020600020016000909190919091505550565b6000600161306a8461152e565b6130749190614427565b9050600060076000848152602001908152602001600020549050818114613159576000600660008673ffffffffffffffffffffffffffffffffffffffff1673ffffffffffffffffffffffffffffffffffffffff168152602001908152602001600020600084815260200190815260200160002054905080600660008773ffffffffffffffffffffffffffffffffffffffff1673ffffffffffffffffffffffffffffffffffffffff168152602001908152602001600020600084815260200190815260200160002081905550816007600083815260200190815260200160002081905550505b6007600084815260200190815260200160002060009055600660008573ffffffffffffffffffffffffffffffffffffffff1673ffffffffffffffffffffffffffffffffffffffff16815260200190815260200160002060008381526020019081526020016000206000905550505050565b600060016008805490506131de9190614427565b9050600060096000848152602001908152602001600020549050600060088381548110613234577f4e487b7100000000000000000000000000000000000000000000000000000000600052603260045260246000fd5b90600052602060002001549050806008838154811061327c577f4e487b7100000000000000000000000000000000000000000000000000000000600052603260045260246000fd5b9060005260206000200181905550816009600083815260200190815260200160002081905550600960008581526020019081526020016000206000905560088054806132f1577f4e487b7100000000000000000000000000000000000000000000000000000000600052603160045260246000fd5b6001900381819060005260206000200160009055905550505050565b60006133188361152e565b905081600660008573ffffffffffffffffffffffffffffffffffffffff1673ffffffffffffffffffffffffffffffffffffffff168152602001908152602001600020600083815260200190815260200160002081905550806007600084815260200190815260200160002081905550505050565b600080823b905060008111915050919050565b8280546133ab9061451b565b90600052602060002090601f0160209004810192826133cd5760008555613414565b82601f106133e657805160ff1916838001178555613414565b82800160010185558215613414579182015b828111156134135782518255916020019190600101906133f8565b5b5090506134219190613425565b5090565b5b8082111561343e576000816000905550600101613426565b5090565b600061345561345084614253565b61422e565b90508281526020810184848401111561346d57600080fd5b6134788482856144d9565b509392505050565b600061349361348e84614284565b61422e565b9050828152602081018484840111156134ab57600080fd5b6134b68482856144d9565b509392505050565b6000813590506134cd81614c9a565b92915050565b60008083601f8401126134e557600080fd5b8235905067ffffffffffffffff8111156134fe57600080fd5b60208301915083602082028301111561351657600080fd5b9250929050565b60008135905061352c81614cb1565b92915050565b60008135905061354181614cc8565b92915050565b60008135905061355681614cdf565b92915050565b60008151905061356b81614cdf565b92915050565b600082601f83011261358257600080fd5b8135613592848260208601613442565b91505092915050565b600082601f8301126135ac57600080fd5b81356135bc848260208601613480565b91505092915050565b6000813590506135d481614cf6565b92915050565b6000602082840312156135ec57600080fd5b60006135fa848285016134be565b91505092915050565b6000806040838503121561361657600080fd5b6000613624858286016134be565b9250506020613635858286016134be565b9150509250929050565b60008060006060848603121561365457600080fd5b6000613662868287016134be565b9350506020613673868287016134be565b9250506040613684868287016135c5565b9150509250925092565b600080600080608085870312156136a457600080fd5b60006136b2878288016134be565b94505060206136c3878288016134be565b93505060406136d4878288016135c5565b925050606085013567ffffffffffffffff8111156136f157600080fd5b6136fd87828801613571565b91505092959194509250565b6000806040838503121561371c57600080fd5b600061372a858286016134be565b925050602061373b8582860161351d565b9150509250929050565b6000806040838503121561375857600080fd5b6000613766858286016134be565b9250506020613777858286016135c5565b9150509250929050565b60006020828403121561379357600080fd5b60006137a18482850161351d565b91505092915050565b6000602082840312156137bc57600080fd5b60006137ca84828501613532565b91505092915050565b6000602082840312156137e557600080fd5b60006137f384828501613547565b91505092915050565b60006020828403121561380e57600080fd5b600061381c8482850161355c565b91505092915050565b60006020828403121561383757600080fd5b600082013567ffffffffffffffff81111561385157600080fd5b61385d8482850161359b565b91505092915050565b60006020828403121561387857600080fd5b6000613886848285016135c5565b91505092915050565b6000806000604084860312156138a457600080fd5b60006138b2868287016135c5565b935050602084013567ffffffffffffffff8111156138cf57600080fd5b6138db868287016134d3565b92509250509250925092565b60006138f38383613ddc565b60208301905092915050565b6139088161445b565b82525050565b61391f61391a8261445b565b6145c7565b82525050565b6000613930826142da565b61393a8185614308565b9350613945836142b5565b8060005b8381101561397657815161395d88826138e7565b9750613968836142fb565b925050600181019050613949565b5085935050505092915050565b61398c8161446d565b82525050565b61399b81614479565b82525050565b6139b26139ad82614479565b6145d9565b82525050565b60006139c3826142e5565b6139cd8185614319565b93506139dd8185602086016144e8565b6139e6816146e2565b840191505092915050565b60006139fc826142f0565b613a06818561432a565b9350613a168185602086016144e8565b613a1f816146e2565b840191505092915050565b6000613a35826142f0565b613a3f818561433b565b9350613a4f8185602086016144e8565b80840191505092915050565b60008154613a688161451b565b613a72818661433b565b94506001821660008114613a8d5760018114613a9e57613ad1565b60ff19831686528186019350613ad1565b613aa7856142c5565b60005b83811015613ac957815481890152600182019150602081019050613aaa565b838801955050505b50505092915050565b6000613ae7602b8361432a565b9150613af282614700565b604082019050919050565b6000613b0a60328361432a565b9150613b158261474f565b604082019050919050565b6000613b2d60268361432a565b9150613b388261479e565b604082019050919050565b6000613b50601c8361432a565b9150613b5b826147ed565b602082019050919050565b6000613b7360248361432a565b9150613b7e82614816565b604082019050919050565b6000613b9660198361432a565b9150613ba182614865565b602082019050919050565b6000613bb9601a8361432a565b9150613bc48261488e565b602082019050919050565b6000613bdc602c8361432a565b9150613be7826148b7565b604082019050919050565b6000613bff601e8361432a565b9150613c0a82614906565b602082019050919050565b6000613c2260388361432a565b9150613c2d8261492f565b604082019050919050565b6000613c4560128361432a565b9150613c508261497e565b602082019050919050565b6000613c68602a8361432a565b9150613c73826149a7565b604082019050919050565b6000613c8b60298361432a565b9150613c96826149f6565b604082019050919050565b6000613cae60208361432a565b9150613cb982614a45565b602082019050919050565b6000613cd1602c8361432a565b9150613cdc82614a6e565b604082019050919050565b6000613cf460208361432a565b9150613cff82614abd565b602082019050919050565b6000613d1760298361432a565b9150613d2282614ae6565b604082019050919050565b6000613d3a602f8361432a565b9150613d4582614b35565b604082019050919050565b6000613d5d60218361432a565b9150613d6882614b84565b604082019050919050565b6000613d8060178361432a565b9150613d8b82614bd3565b602082019050919050565b6000613da360318361432a565b9150613dae82614bfc565b604082019050919050565b6000613dc6602c8361432a565b9150613dd182614c4b565b604082019050919050565b613de5816144cf565b82525050565b613df4816144cf565b82525050565b6000613e06828461390e565b60148201915081905092915050565b6000613e2182856139a1565b602082019150613e3182846139a1565b6020820191508190509392505050565b6000613e4d8286613a2a565b9150613e598285613a2a565b9150613e658284613a5b565b9150819050949350505050565b6000602082019050613e8760008301846138ff565b92915050565b6000608082019050613ea260008301876138ff565b613eaf60208301866138ff565b613ebc6040830185613deb565b8181036060830152613ece81846139b8565b905095945050505050565b60006020820190508181036000830152613ef38184613925565b905092915050565b6000602082019050613f106000830184613983565b92915050565b6000602082019050613f2b6000830184613992565b92915050565b60006020820190508181036000830152613f4b81846139f1565b905092915050565b60006020820190508181036000830152613f6c81613ada565b9050919050565b60006020820190508181036000830152613f8c81613afd565b9050919050565b60006020820190508181036000830152613fac81613b20565b9050919050565b60006020820190508181036000830152613fcc81613b43565b9050919050565b60006020820190508181036000830152613fec81613b66565b9050919050565b6000602082019050818103600083015261400c81613b89565b9050919050565b6000602082019050818103600083015261402c81613bac565b9050919050565b6000602082019050818103600083015261404c81613bcf565b9050919050565b6000602082019050818103600083015261406c81613bf2565b9050919050565b6000602082019050818103600083015261408c81613c15565b9050919050565b600060208201905081810360008301526140ac81613c38565b9050919050565b600060208201905081810360008301526140cc81613c5b565b9050919050565b600060208201905081810360008301526140ec81613c7e565b9050919050565b6000602082019050818103600083015261410c81613ca1565b9050919050565b6000602082019050818103600083015261412c81613cc4565b9050919050565b6000602082019050818103600083015261414c81613ce7565b9050919050565b6000602082019050818103600083015261416c81613d0a565b9050919050565b6000602082019050818103600083015261418c81613d2d565b9050919050565b600060208201905081810360008301526141ac81613d50565b9050919050565b600060208201905081810360008301526141cc81613d73565b9050919050565b600060208201905081810360008301526141ec81613d96565b9050919050565b6000602082019050818103600083015261420c81613db9565b9050919050565b60006020820190506142286000830184613deb565b92915050565b6000614238614249565b9050614244828261454d565b919050565b6000604051905090565b600067ffffffffffffffff82111561426e5761426d6146b3565b5b614277826146e2565b9050602081019050919050565b600067ffffffffffffffff82111561429f5761429e6146b3565b5b6142a8826146e2565b9050602081019050919050565b6000819050602082019050919050565b60008190508160005260206000209050919050565b600081519050919050565b600081519050919050565b600081519050919050565b6000602082019050919050565b600082825260208201905092915050565b600082825260208201905092915050565b600082825260208201905092915050565b600081905092915050565b6000614351826144cf565b915061435c836144cf565b9250827fffffffffffffffffffffffffffffffffffffffffffffffffffffffffffffffff0382111561439157614390614626565b5b828201905092915050565b60006143a7826144cf565b91506143b2836144cf565b9250826143c2576143c1614655565b5b828204905092915050565b60006143d8826144cf565b91506143e3836144cf565b9250817fffffffffffffffffffffffffffffffffffffffffffffffffffffffffffffffff048311821515161561441c5761441b614626565b5b828202905092915050565b6000614432826144cf565b915061443d836144cf565b9250828210156144505761444f614626565b5b828203905092915050565b6000614466826144af565b9050919050565b60008115159050919050565b6000819050919050565b60007fffffffff0000000000000000000000000000000000000000000000000000000082169050919050565b600073ffffffffffffffffffffffffffffffffffffffff82169050919050565b6000819050919050565b82818337600083830152505050565b60005b838110156145065780820151818401526020810190506144eb565b83811115614515576000848401525b50505050565b6000600282049050600182168061453357607f821691505b6020821081141561454757614546614684565b5b50919050565b614556826146e2565b810181811067ffffffffffffffff82111715614575576145746146b3565b5b80604052505050565b6000614589826144cf565b91507fffffffffffffffffffffffffffffffffffffffffffffffffffffffffffffffff8214156145bc576145bb614626565b5b600182019050919050565b60006145d2826145e3565b9050919050565b6000819050919050565b60006145ee826146f3565b9050919050565b6000614600826144cf565b915061460b836144cf565b92508261461b5761461a614655565b5b828206905092915050565b7f4e487b7100000000000000000000000000000000000000000000000000000000600052601160045260246000fd5b7f4e487b7100000000000000000000000000000000000000000000000000000000600052601260045260246000fd5b7f4e487b7100000000000000000000000000000000000000000000000000000000600052602260045260246000fd5b7f4e487b7100000000000000000000000000000000000000000000000000000000600052604160045260246000fd5b6000601f19601f8301169050919050565b60008160601b9050919050565b7f455243373231456e756d657261626c653a206f776e657220696e646578206f7560008201527f74206f6620626f756e6473000000000000000000000000000000000000000000602082015250565b7f4552433732313a207472616e7366657220746f206e6f6e20455243373231526560008201527f63656976657220696d706c656d656e7465720000000000000000000000000000602082015250565b7f4f776e61626c653a206e6577206f776e657220697320746865207a65726f206160008201527f6464726573730000000000000000000000000000000000000000000000000000602082015250565b7f4552433732313a20746f6b656e20616c7265616479206d696e74656400000000600082015250565b7f4552433732313a207472616e7366657220746f20746865207a65726f2061646460008201527f7265737300000000000000000000000000000000000000000000000000000000602082015250565b7f4552433732313a20617070726f766520746f2063616c6c657200000000000000600082015250565b7f6d696e7420616d6f756e742063616e6e6f74206265207a65726f000000000000600082015250565b7f4552433732313a206f70657261746f7220717565727920666f72206e6f6e657860008201527f697374656e7420746f6b656e0000000000000000000000000000000000000000602082015250565b7f4164647265737320646f6573206e6f7420657869737420696e206c6973740000600082015250565b7f4552433732313a20617070726f76652063616c6c6572206973206e6f74206f7760008201527f6e6572206e6f7220617070726f76656420666f7220616c6c0000000000000000602082015250565b7f7075626c6963206d696e74207061757365640000000000000000000000000000600082015250565b7f4552433732313a2062616c616e636520717565727920666f7220746865207a6560008201527f726f206164647265737300000000000000000000000000000000000000000000602082015250565b7f4552433732313a206f776e657220717565727920666f72206e6f6e657869737460008201527f656e7420746f6b656e0000000000000000000000000000000000000000000000602082015250565b7f4552433732313a206d696e7420746f20746865207a65726f2061646472657373600082015250565b7f4552433732313a20617070726f76656420717565727920666f72206e6f6e657860008201527f697374656e7420746f6b656e0000000000000000000000000000000000000000602082015250565b7f4f776e61626c653a2063616c6c6572206973206e6f7420746865206f776e6572600082015250565b7f4552433732313a207472616e73666572206f6620746f6b656e2074686174206960008201527f73206e6f74206f776e0000000000000000000000000000000000000000000000602082015250565b7f4552433732314d657461646174613a2055524920717565727920666f72206e6f60008201527f6e6578697374656e7420746f6b656e0000000000000000000000000000000000602082015250565b7f4552433732313a20617070726f76616c20746f2063757272656e74206f776e6560008201527f7200000000000000000000000000000000000000000000000000000000000000602082015250565b7f6d696e7420616d6f756e742065786365656473206d6178000000000000000000600082015250565b7f4552433732313a207472616e736665722063616c6c6572206973206e6f74206f60008201527f776e6572206e6f7220617070726f766564000000000000000000000000000000602082015250565b7f455243373231456e756d657261626c653a20676c6f62616c20696e646578206f60008201527f7574206f6620626f756e64730000000000000000000000000000000000000000602082015250565b614ca38161445b565b8114614cae57600080fd5b50565b614cba8161446d565b8114614cc557600080fd5b50565b614cd181614479565b8114614cdc57600080fd5b50565b614ce881614483565b8114614cf357600080fd5b50565b614cff816144cf565b8114614d0a57600080fd5b5056fea2646970667358221220b26cf7f6d02e346381ca81d6b66833ef406a545603f805e19f8d75ce46c98f1264736f6c63430008040033",
  "linkReferences": {},
  "deployedLinkReferences": {}
}