{
  "_format": "hh-sol-artifact-1",
  "contractName": "Yoshi",
  "sourceName": "contracts/Yoshi.sol",
  "abi": [
    {
      "inputs": [
        {
          "internalType": "string",
          "name": "_tokenName",
          "type": "string"
        },
        {
          "internalType": "string",
          "name": "_tokenSymbol",
          "type": "string"
        },
        {
          "internalType": "uint256",
          "name": "_whiteListMintPrice",
          "type": "uint256"
        },
        {
          "internalType": "uint256",
          "name": "_publicMintPrice",
          "type": "uint256"
        },
        {
          "internalType": "uint256",
          "name": "_maxSupply",
          "type": "uint256"
        },
        {
          "internalType": "string",
          "name": "_hiddenMetadataUri",
          "type": "string"
        }
      ],
      "stateMutability": "nonpayable",
      "type": "constructor"
    },
    {
      "inputs": [],
      "name": "ApprovalCallerNotOwnerNorApproved",
      "type": "error"
    },
    {
      "inputs": [],
      "name": "ApprovalQueryForNonexistentToken",
      "type": "error"
    },
    {
      "inputs": [],
      "name": "ApprovalToCurrentOwner",
      "type": "error"
    },
    {
      "inputs": [],
      "name": "ApproveToCaller",
      "type": "error"
    },
    {
      "inputs": [],
      "name": "BalanceQueryForZeroAddress",
      "type": "error"
    },
    {
      "inputs": [],
      "name": "MintToZeroAddress",
      "type": "error"
    },
    {
      "inputs": [],
      "name": "MintZeroQuantity",
      "type": "error"
    },
    {
      "inputs": [],
      "name": "OwnerQueryForNonexistentToken",
      "type": "error"
    },
    {
      "inputs": [],
      "name": "TransferCallerNotOwnerNorApproved",
      "type": "error"
    },
    {
      "inputs": [],
      "name": "TransferFromIncorrectOwner",
      "type": "error"
    },
    {
      "inputs": [],
      "name": "TransferToNonERC721ReceiverImplementer",
      "type": "error"
    },
    {
      "inputs": [],
      "name": "TransferToZeroAddress",
      "type": "error"
    },
    {
      "anonymous": false,
      "inputs": [
        {
          "indexed": true,
          "internalType": "address",
          "name": "owner",
          "type": "address"
        },
        {
          "indexed": true,
          "internalType": "address",
          "name": "approved",
          "type": "address"
        },
        {
          "indexed": true,
          "internalType": "uint256",
          "name": "tokenId",
          "type": "uint256"
        }
      ],
      "name": "Approval",
      "type": "event"
    },
    {
      "anonymous": false,
      "inputs": [
        {
          "indexed": true,
          "internalType": "address",
          "name": "owner",
          "type": "address"
        },
        {
          "indexed": true,
          "internalType": "address",
          "name": "operator",
          "type": "address"
        },
        {
          "indexed": false,
          "internalType": "bool",
          "name": "approved",
          "type": "bool"
        }
      ],
      "name": "ApprovalForAll",
      "type": "event"
    },
    {
      "anonymous": false,
      "inputs": [
        {
          "indexed": true,
          "internalType": "address",
          "name": "previousOwner",
          "type": "address"
        },
        {
          "indexed": true,
          "internalType": "address",
          "name": "newOwner",
          "type": "address"
        }
      ],
      "name": "OwnershipTransferred",
      "type": "event"
    },
    {
      "anonymous": false,
      "inputs": [
        {
          "indexed": true,
          "internalType": "address",
          "name": "from",
          "type": "address"
        },
        {
          "indexed": true,
          "internalType": "address",
          "name": "to",
          "type": "address"
        },
        {
          "indexed": true,
          "internalType": "uint256",
          "name": "tokenId",
          "type": "uint256"
        }
      ],
      "name": "Transfer",
      "type": "event"
    },
    {
      "inputs": [
        {
          "internalType": "address",
          "name": "to",
          "type": "address"
        },
        {
          "internalType": "uint256",
          "name": "tokenId",
          "type": "uint256"
        }
      ],
      "name": "approve",
      "outputs": [],
      "stateMutability": "nonpayable",
      "type": "function"
    },
    {
      "inputs": [
        {
          "internalType": "address",
          "name": "owner",
          "type": "address"
        }
      ],
      "name": "balanceOf",
      "outputs": [
        {
          "internalType": "uint256",
          "name": "",
          "type": "uint256"
        }
      ],
      "stateMutability": "view",
      "type": "function"
    },
    {
      "inputs": [
        {
          "internalType": "uint256",
          "name": "tokenId",
          "type": "uint256"
        }
      ],
      "name": "getApproved",
      "outputs": [
        {
          "internalType": "address",
          "name": "",
          "type": "address"
        }
      ],
      "stateMutability": "view",
      "type": "function"
    },
    {
      "inputs": [],
      "name": "hiddenMetadataUri",
      "outputs": [
        {
          "internalType": "string",
          "name": "",
          "type": "string"
        }
      ],
      "stateMutability": "view",
      "type": "function"
    },
    {
      "inputs": [
        {
          "internalType": "address",
          "name": "owner",
          "type": "address"
        },
        {
          "internalType": "address",
          "name": "operator",
          "type": "address"
        }
      ],
      "name": "isApprovedForAll",
      "outputs": [
        {
          "internalType": "bool",
          "name": "",
          "type": "bool"
        }
      ],
      "stateMutability": "view",
      "type": "function"
    },
    {
      "inputs": [],
      "name": "maxMintAmountPerTx",
      "outputs": [
        {
          "internalType": "uint256",
          "name": "",
          "type": "uint256"
        }
      ],
      "stateMutability": "view",
      "type": "function"
    },
    {
      "inputs": [],
      "name": "maxSupply",
      "outputs": [
        {
          "internalType": "uint256",
          "name": "",
          "type": "uint256"
        }
      ],
      "stateMutability": "view",
      "type": "function"
    },
    {
      "inputs": [],
      "name": "merkleRoot",
      "outputs": [
        {
          "internalType": "bytes32",
          "name": "",
          "type": "bytes32"
        }
      ],
      "stateMutability": "view",
      "type": "function"
    },
    {
      "inputs": [
        {
          "internalType": "uint256",
          "name": "_mintAmount",
          "type": "uint256"
        },
        {
          "internalType": "address",
          "name": "_receiver",
          "type": "address"
        }
      ],
      "name": "mintForAddress",
      "outputs": [],
      "stateMutability": "nonpayable",
      "type": "function"
    },
    {
      "inputs": [],
      "name": "name",
      "outputs": [
        {
          "internalType": "string",
          "name": "",
          "type": "string"
        }
      ],
      "stateMutability": "view",
      "type": "function"
    },
    {
      "inputs": [],
      "name": "owner",
      "outputs": [
        {
          "internalType": "address",
          "name": "",
          "type": "address"
        }
      ],
      "stateMutability": "view",
      "type": "function"
    },
    {
      "inputs": [
        {
          "internalType": "uint256",
          "name": "tokenId",
          "type": "uint256"
        }
      ],
      "name": "ownerOf",
      "outputs": [
        {
          "internalType": "address",
          "name": "",
          "type": "address"
        }
      ],
      "stateMutability": "view",
      "type": "function"
    },
    {
      "inputs": [
        {
          "internalType": "uint256",
          "name": "_mintAmount",
          "type": "uint256"
        }
      ],
      "name": "publicMint",
      "outputs": [],
      "stateMutability": "payable",
      "type": "function"
    },
    {
      "inputs": [],
      "name": "publicMintEnabled",
      "outputs": [
        {
          "internalType": "bool",
          "name": "",
          "type": "bool"
        }
      ],
      "stateMutability": "view",
      "type": "function"
    },
    {
      "inputs": [],
      "name": "publicMintPrice",
      "outputs": [
        {
          "internalType": "uint256",
          "name": "",
          "type": "uint256"
        }
      ],
      "stateMutability": "view",
      "type": "function"
    },
    {
      "inputs": [],
      "name": "renounceOwnership",
      "outputs": [],
      "stateMutability": "nonpayable",
      "type": "function"
    },
    {
      "inputs": [],
      "name": "revealed",
      "outputs": [
        {
          "internalType": "bool",
          "name": "",
          "type": "bool"
        }
      ],
      "stateMutability": "view",
      "type": "function"
    },
    {
      "inputs": [
        {
          "internalType": "address",
          "name": "from",
          "type": "address"
        },
        {
          "internalType": "address",
          "name": "to",
          "type": "address"
        },
        {
          "internalType": "uint256",
          "name": "tokenId",
          "type": "uint256"
        }
      ],
      "name": "safeTransferFrom",
      "outputs": [],
      "stateMutability": "nonpayable",
      "type": "function"
    },
    {
      "inputs": [
        {
          "internalType": "address",
          "name": "from",
          "type": "address"
        },
        {
          "internalType": "address",
          "name": "to",
          "type": "address"
        },
        {
          "internalType": "uint256",
          "name": "tokenId",
          "type": "uint256"
        },
        {
          "internalType": "bytes",
          "name": "_data",
          "type": "bytes"
        }
      ],
      "name": "safeTransferFrom",
      "outputs": [],
      "stateMutability": "nonpayable",
      "type": "function"
    },
    {
      "inputs": [
        {
          "internalType": "address",
          "name": "operator",
          "type": "address"
        },
        {
          "internalType": "bool",
          "name": "approved",
          "type": "bool"
        }
      ],
      "name": "setApprovalForAll",
      "outputs": [],
      "stateMutability": "nonpayable",
      "type": "function"
    },
    {
      "inputs": [
        {
          "internalType": "string",
          "name": "_hiddenMetadataUri",
          "type": "string"
        }
      ],
      "name": "setHiddenMetadataUri",
      "outputs": [],
      "stateMutability": "nonpayable",
      "type": "function"
    },
    {
      "inputs": [
        {
          "internalType": "uint256",
          "name": "_maxMintAmountPerTx",
          "type": "uint256"
        }
      ],
      "name": "setMaxMintAmountPerTx",
      "outputs": [],
      "stateMutability": "nonpayable",
      "type": "function"
    },
    {
      "inputs": [
        {
          "internalType": "bytes32",
          "name": "_merkleRoot",
          "type": "bytes32"
        }
      ],
      "name": "setMerkleRoot",
      "outputs": [],
      "stateMutability": "nonpayable",
      "type": "function"
    },
    {
      "inputs": [
        {
          "internalType": "bool",
          "name": "_state",
          "type": "bool"
        }
      ],
      "name": "setPublicMintEnabled",
      "outputs": [],
      "stateMutability": "nonpayable",
      "type": "function"
    },
    {
      "inputs": [
        {
          "internalType": "uint256",
          "name": "_publicMintPrice",
          "type": "uint256"
        }
      ],
      "name": "setPublicMintPrice",
      "outputs": [],
      "stateMutability": "nonpayable",
      "type": "function"
    },
    {
      "inputs": [
        {
          "internalType": "bool",
          "name": "_state",
          "type": "bool"
        }
      ],
      "name": "setRevealed",
      "outputs": [],
      "stateMutability": "nonpayable",
      "type": "function"
    },
    {
      "inputs": [
        {
          "internalType": "string",
          "name": "_uriPrefix",
          "type": "string"
        }
      ],
      "name": "setUriPrefix",
      "outputs": [],
      "stateMutability": "nonpayable",
      "type": "function"
    },
    {
      "inputs": [
        {
          "internalType": "string",
          "name": "_uriSuffix",
          "type": "string"
        }
      ],
      "name": "setUriSuffix",
      "outputs": [],
      "stateMutability": "nonpayable",
      "type": "function"
    },
    {
      "inputs": [
        {
          "internalType": "uint256",
          "name": "_whiteListMintPrice",
          "type": "uint256"
        }
      ],
      "name": "setWhiteListPrice",
      "outputs": [],
      "stateMutability": "nonpayable",
      "type": "function"
    },
    {
      "inputs": [
        {
          "internalType": "bool",
          "name": "_state",
          "type": "bool"
        }
      ],
      "name": "setWhitelistMintEnabled",
      "outputs": [],
      "stateMutability": "nonpayable",
      "type": "function"
    },
    {
      "inputs": [
        {
          "internalType": "bytes4",
          "name": "interfaceId",
          "type": "bytes4"
        }
      ],
      "name": "supportsInterface",
      "outputs": [
        {
          "internalType": "bool",
          "name": "",
          "type": "bool"
        }
      ],
      "stateMutability": "view",
      "type": "function"
    },
    {
      "inputs": [],
      "name": "symbol",
      "outputs": [
        {
          "internalType": "string",
          "name": "",
          "type": "string"
        }
      ],
      "stateMutability": "view",
      "type": "function"
    },
    {
      "inputs": [
        {
          "internalType": "uint256",
          "name": "_tokenId",
          "type": "uint256"
        }
      ],
      "name": "tokenURI",
      "outputs": [
        {
          "internalType": "string",
          "name": "",
          "type": "string"
        }
      ],
      "stateMutability": "view",
      "type": "function"
    },
    {
      "inputs": [],
      "name": "totalSupply",
      "outputs": [
        {
          "internalType": "uint256",
          "name": "",
          "type": "uint256"
        }
      ],
      "stateMutability": "view",
      "type": "function"
    },
    {
      "inputs": [
        {
          "internalType": "address",
          "name": "from",
          "type": "address"
        },
        {
          "internalType": "address",
          "name": "to",
          "type": "address"
        },
        {
          "internalType": "uint256",
          "name": "tokenId",
          "type": "uint256"
        }
      ],
      "name": "transferFrom",
      "outputs": [],
      "stateMutability": "nonpayable",
      "type": "function"
    },
    {
      "inputs": [
        {
          "internalType": "address",
          "name": "newOwner",
          "type": "address"
        }
      ],
      "name": "transferOwnership",
      "outputs": [],
      "stateMutability": "nonpayable",
      "type": "function"
    },
    {
      "inputs": [],
      "name": "uriPrefix",
      "outputs": [
        {
          "internalType": "string",
          "name": "",
          "type": "string"
        }
      ],
      "stateMutability": "view",
      "type": "function"
    },
    {
      "inputs": [],
      "name": "uriSuffix",
      "outputs": [
        {
          "internalType": "string",
          "name": "",
          "type": "string"
        }
      ],
      "stateMutability": "view",
      "type": "function"
    },
    {
      "inputs": [
        {
          "internalType": "address",
          "name": "_owner",
          "type": "address"
        }
      ],
      "name": "walletOfOwner",
      "outputs": [
        {
          "internalType": "uint256[]",
          "name": "",
          "type": "uint256[]"
        }
      ],
      "stateMutability": "view",
      "type": "function"
    },
    {
      "inputs": [],
      "name": "whiteListMintPrice",
      "outputs": [
        {
          "internalType": "uint256",
          "name": "",
          "type": "uint256"
        }
      ],
      "stateMutability": "view",
      "type": "function"
    },
    {
      "inputs": [
        {
          "internalType": "address",
          "name": "",
          "type": "address"
        }
      ],
      "name": "whitelistClaimed",
      "outputs": [
        {
          "internalType": "bool",
          "name": "",
          "type": "bool"
        }
      ],
      "stateMutability": "view",
      "type": "function"
    },
    {
      "inputs": [
        {
          "internalType": "uint256",
          "name": "_mintAmount",
          "type": "uint256"
        },
        {
          "internalType": "bytes32[]",
          "name": "merkleProof",
          "type": "bytes32[]"
        }
      ],
      "name": "whitelistMint",
      "outputs": [],
      "stateMutability": "payable",
      "type": "function"
    },
    {
      "inputs": [],
      "name": "whitelistMintEnabled",
      "outputs": [
        {
          "internalType": "bool",
          "name": "",
          "type": "bool"
        }
      ],
      "stateMutability": "view",
      "type": "function"
    },
    {
      "inputs": [],
      "name": "withdrawAll",
      "outputs": [],
      "stateMutability": "nonpayable",
      "type": "function"
    }
  ],
  "bytecode": "0x608060405260405180602001604052806000815250600c90805190602001906200002b92919062000355565b506040518060400160405280600581526020017f2e6a736f6e000000000000000000000000000000000000000000000000000000815250600d90805190602001906200007992919062000355565b5060056012556000601360006101000a81548160ff0219169083151502179055506000601360016101000a81548160ff0219169083151502179055506000601360026101000a81548160ff021916908315150217905550348015620000dd57600080fd5b5060405162005407380380620054078339818101604052810190620001039190620005dd565b858581600290805190602001906200011d92919062000355565b5080600390805190602001906200013692919062000355565b5062000147620001a960201b60201c565b60008190555050506200016f62000163620001b260201b60201c565b620001ba60201b60201c565b600160098190555083600f8190555082601081905550816011819055506200019d816200028060201b60201c565b505050505050620007be565b60006001905090565b600033905090565b6000600860009054906101000a900473ffffffffffffffffffffffffffffffffffffffff16905081600860006101000a81548173ffffffffffffffffffffffffffffffffffffffff021916908373ffffffffffffffffffffffffffffffffffffffff1602179055508173ffffffffffffffffffffffffffffffffffffffff168173ffffffffffffffffffffffffffffffffffffffff167f8be0079c531659141344cd1fd0a4f28419497f9722a3daafe3b4186f6b6457e060405160405180910390a35050565b62000290620001b260201b60201c565b73ffffffffffffffffffffffffffffffffffffffff16620002b66200032b60201b60201c565b73ffffffffffffffffffffffffffffffffffffffff16146200030f576040517f08c379a0000000000000000000000000000000000000000000000000000000008152600401620003069062000737565b60405180910390fd5b80600e90805190602001906200032792919062000355565b5050565b6000600860009054906101000a900473ffffffffffffffffffffffffffffffffffffffff16905090565b828054620003639062000788565b90600052602060002090601f016020900481019282620003875760008555620003d3565b82601f10620003a257805160ff1916838001178555620003d3565b82800160010185558215620003d3579182015b82811115620003d2578251825591602001919060010190620003b5565b5b509050620003e29190620003e6565b5090565b5b8082111562000401576000816000905550600101620003e7565b5090565b6000604051905090565b600080fd5b600080fd5b600080fd5b600080fd5b6000601f19601f8301169050919050565b7f4e487b7100000000000000000000000000000000000000000000000000000000600052604160045260246000fd5b6200046e8262000423565b810181811067ffffffffffffffff8211171562000490576200048f62000434565b5b80604052505050565b6000620004a562000405565b9050620004b3828262000463565b919050565b600067ffffffffffffffff821115620004d657620004d562000434565b5b620004e18262000423565b9050602081019050919050565b60005b838110156200050e578082015181840152602081019050620004f1565b838111156200051e576000848401525b50505050565b60006200053b6200053584620004b8565b62000499565b9050828152602081018484840111156200055a57620005596200041e565b5b62000567848285620004ee565b509392505050565b600082601f83011262000587576200058662000419565b5b81516200059984826020860162000524565b91505092915050565b6000819050919050565b620005b781620005a2565b8114620005c357600080fd5b50565b600081519050620005d781620005ac565b92915050565b60008060008060008060c08789031215620005fd57620005fc6200040f565b5b600087015167ffffffffffffffff8111156200061e576200061d62000414565b5b6200062c89828a016200056f565b965050602087015167ffffffffffffffff81111562000650576200064f62000414565b5b6200065e89828a016200056f565b95505060406200067189828a01620005c6565b94505060606200068489828a01620005c6565b93505060806200069789828a01620005c6565b92505060a087015167ffffffffffffffff811115620006bb57620006ba62000414565b5b620006c989828a016200056f565b9150509295509295509295565b600082825260208201905092915050565b7f4f776e61626c653a2063616c6c6572206973206e6f7420746865206f776e6572600082015250565b60006200071f602083620006d6565b91506200072c82620006e7565b602082019050919050565b60006020820190508181036000830152620007528162000710565b9050919050565b7f4e487b7100000000000000000000000000000000000000000000000000000000600052602260045260246000fd5b60006002820490506001821680620007a157607f821691505b60208210811415620007b857620007b762000759565b5b50919050565b614c3980620007ce6000396000f3fe6080604052600436106102675760003560e01c80637ec4a65911610144578063beafc89b116100b6578063db4bec441161007a578063db4bec44146108d8578063dc53fd9214610915578063e0a8085314610940578063e985e9c514610969578063efbd73f4146109a6578063f2fde38b146109cf57610267565b8063beafc89b14610800578063bf97ef1e14610829578063c87b56dd14610854578063d2cab05614610891578063d5abeb01146108ad57610267565b806395d89b411161010857806395d89b4114610706578063a22cb46514610731578063a45ba8e71461075a578063b071401b14610785578063b767a098146107ae578063b88d4fde146107d757610267565b80637ec4a65914610647578063818668d714610670578063853828b6146106995780638da5cb5b146106b057806394354fd0146106db57610267565b8063438b6300116101dd57806362b99ad4116101a157806362b99ad4146105375780636352211e146105625780636caede3d1461059f57806370a08231146105ca578063715018a6146106075780637cb647591461061e57610267565b8063438b6300146104525780634fdd43cb1461048f57806351830227146104b85780635503a0e8146104e35780635d82cf6e1461050e57610267565b806316ba10e01161022f57806316ba10e01461036557806318160ddd1461038e57806323b872dd146103b95780632db11544146103e25780632eb4a7ab146103fe57806342842e0e1461042957610267565b806301ffc9a71461026c57806306fdde03146102a9578063081812fc146102d4578063095ea7b3146103115780630f4161aa1461033a575b600080fd5b34801561027857600080fd5b50610293600480360381019061028e919061396d565b6109f8565b6040516102a091906139b5565b60405180910390f35b3480156102b557600080fd5b506102be610ada565b6040516102cb9190613a69565b60405180910390f35b3480156102e057600080fd5b506102fb60048036038101906102f69190613ac1565b610b6c565b6040516103089190613b2f565b60405180910390f35b34801561031d57600080fd5b5061033860048036038101906103339190613b76565b610be8565b005b34801561034657600080fd5b5061034f610cf3565b60405161035c91906139b5565b60405180910390f35b34801561037157600080fd5b5061038c60048036038101906103879190613ceb565b610d06565b005b34801561039a57600080fd5b506103a3610d9c565b6040516103b09190613d43565b60405180910390f35b3480156103c557600080fd5b506103e060048036038101906103db9190613d5e565b610db3565b005b6103fc60048036038101906103f79190613ac1565b610dc3565b005b34801561040a57600080fd5b50610413610f24565b6040516104209190613dca565b60405180910390f35b34801561043557600080fd5b50610450600480360381019061044b9190613d5e565b610f2a565b005b34801561045e57600080fd5b5061047960048036038101906104749190613de5565b610f4a565b6040516104869190613ed0565b60405180910390f35b34801561049b57600080fd5b506104b660048036038101906104b19190613ceb565b611165565b005b3480156104c457600080fd5b506104cd6111fb565b6040516104da91906139b5565b60405180910390f35b3480156104ef57600080fd5b506104f861120e565b6040516105059190613a69565b60405180910390f35b34801561051a57600080fd5b5061053560048036038101906105309190613ac1565b61129c565b005b34801561054357600080fd5b5061054c611322565b6040516105599190613a69565b60405180910390f35b34801561056e57600080fd5b5061058960048036038101906105849190613ac1565b6113b0565b6040516105969190613b2f565b60405180910390f35b3480156105ab57600080fd5b506105b46113c6565b6040516105c191906139b5565b60405180910390f35b3480156105d657600080fd5b506105f160048036038101906105ec9190613de5565b6113d9565b6040516105fe9190613d43565b60405180910390f35b34801561061357600080fd5b5061061c6114a9565b005b34801561062a57600080fd5b5061064560048036038101906106409190613f1e565b611531565b005b34801561065357600080fd5b5061066e60048036038101906106699190613ceb565b6115b7565b005b34801561067c57600080fd5b5061069760048036038101906106929190613f77565b61164d565b005b3480156106a557600080fd5b506106ae6116e6565b005b3480156106bc57600080fd5b506106c561193d565b6040516106d29190613b2f565b60405180910390f35b3480156106e757600080fd5b506106f0611967565b6040516106fd9190613d43565b60405180910390f35b34801561071257600080fd5b5061071b61196d565b6040516107289190613a69565b60405180910390f35b34801561073d57600080fd5b5061075860048036038101906107539190613fa4565b6119ff565b005b34801561076657600080fd5b5061076f611b77565b60405161077c9190613a69565b60405180910390f35b34801561079157600080fd5b506107ac60048036038101906107a79190613ac1565b611c05565b005b3480156107ba57600080fd5b506107d560048036038101906107d09190613f77565b611c8b565b005b3480156107e357600080fd5b506107fe60048036038101906107f99190614085565b611d24565b005b34801561080c57600080fd5b5061082760048036038101906108229190613ac1565b611da0565b005b34801561083557600080fd5b5061083e611e26565b60405161084b9190613d43565b60405180910390f35b34801561086057600080fd5b5061087b60048036038101906108769190613ac1565b611e2c565b6040516108889190613a69565b60405180910390f35b6108ab60048036038101906108a69190614168565b611f85565b005b3480156108b957600080fd5b506108c261229b565b6040516108cf9190613d43565b60405180910390f35b3480156108e457600080fd5b506108ff60048036038101906108fa9190613de5565b6122a1565b60405161090c91906139b5565b60405180910390f35b34801561092157600080fd5b5061092a6122c1565b6040516109379190613d43565b60405180910390f35b34801561094c57600080fd5b5061096760048036038101906109629190613f77565b6122c7565b005b34801561097557600080fd5b50610990600480360381019061098b91906141c8565b612360565b60405161099d91906139b5565b60405180910390f35b3480156109b257600080fd5b506109cd60048036038101906109c89190614208565b6123f4565b005b3480156109db57600080fd5b506109f660048036038101906109f19190613de5565b612528565b005b60007f80ac58cd000000000000000000000000000000000000000000000000000000007bffffffffffffffffffffffffffffffffffffffffffffffffffffffff1916827bffffffffffffffffffffffffffffffffffffffffffffffffffffffff19161480610ac357507f5b5e139f000000000000000000000000000000000000000000000000000000007bffffffffffffffffffffffffffffffffffffffffffffffffffffffff1916827bffffffffffffffffffffffffffffffffffffffffffffffffffffffff1916145b80610ad35750610ad282612620565b5b9050919050565b606060028054610ae990614277565b80601f0160208091040260200160405190810160405280929190818152602001828054610b1590614277565b8015610b625780601f10610b3757610100808354040283529160200191610b62565b820191906000526020600020905b815481529060010190602001808311610b4557829003601f168201915b5050505050905090565b6000610b778261268a565b610bad576040517fcf4700e400000000000000000000000000000000000000000000000000000000815260040160405180910390fd5b6006600083815260200190815260200160002060009054906101000a900473ffffffffffffffffffffffffffffffffffffffff169050919050565b6000610bf3826113b0565b90508073ffffffffffffffffffffffffffffffffffffffff168373ffffffffffffffffffffffffffffffffffffffff161415610c5b576040517f943f7b8c00000000000000000000000000000000000000000000000000000000815260040160405180910390fd5b8073ffffffffffffffffffffffffffffffffffffffff16610c7a6126d8565b73ffffffffffffffffffffffffffffffffffffffff1614158015610cac5750610caa81610ca56126d8565b612360565b155b15610ce3576040517fcfb3b94200000000000000000000000000000000000000000000000000000000815260040160405180910390fd5b610cee8383836126e0565b505050565b601360019054906101000a900460ff1681565b610d0e6126d8565b73ffffffffffffffffffffffffffffffffffffffff16610d2c61193d565b73ffffffffffffffffffffffffffffffffffffffff1614610d82576040517f08c379a0000000000000000000000000000000000000000000000000000000008152600401610d79906142f5565b60405180910390fd5b80600d9080519060200190610d9892919061381b565b5050565b6000610da6612792565b6001546000540303905090565b610dbe83838361279b565b505050565b80600081118015610dd657506012548111155b610e15576040517f08c379a0000000000000000000000000000000000000000000000000000000008152600401610e0c90614361565b60405180910390fd5b60115481610e21610d9c565b610e2b91906143b0565b1115610e6c576040517f08c379a0000000000000000000000000000000000000000000000000000000008152600401610e6390614452565b60405180910390fd5b816010548181610e7c9190614472565b341015610ebe576040517f08c379a0000000000000000000000000000000000000000000000000000000008152600401610eb590614518565b60405180910390fd5b601360019054906101000a900460ff16610f0d576040517f08c379a0000000000000000000000000000000000000000000000000000000008152600401610f04906145aa565b60405180910390fd5b610f1e610f186126d8565b85612c8c565b50505050565b600a5481565b610f4583838360405180602001604052806000815250611d24565b505050565b60606000610f57836113d9565b905060008167ffffffffffffffff811115610f7557610f74613bc0565b5b604051908082528060200260200182016040528015610fa35781602001602082028036833780820191505090505b5090506000610fb0612792565b90506000805b8482108015610fc757506011548311155b15611158576000600460008581526020019081526020016000206040518060600160405290816000820160009054906101000a900473ffffffffffffffffffffffffffffffffffffffff1673ffffffffffffffffffffffffffffffffffffffff1673ffffffffffffffffffffffffffffffffffffffff1681526020016000820160149054906101000a900467ffffffffffffffff1667ffffffffffffffff1667ffffffffffffffff16815260200160008201601c9054906101000a900460ff161515151581525050905080604001511580156110d45750600073ffffffffffffffffffffffffffffffffffffffff16816000015173ffffffffffffffffffffffffffffffffffffffff1614155b156110e157806000015191505b8773ffffffffffffffffffffffffffffffffffffffff168273ffffffffffffffffffffffffffffffffffffffff1614156111445783858481518110611129576111286145ca565b5b6020026020010181815250508280611140906145f9565b9350505b838061114f906145f9565b94505050610fb6565b8395505050505050919050565b61116d6126d8565b73ffffffffffffffffffffffffffffffffffffffff1661118b61193d565b73ffffffffffffffffffffffffffffffffffffffff16146111e1576040517f08c379a00000000000000000000000000000000000000000000000000000000081526004016111d8906142f5565b60405180910390fd5b80600e90805190602001906111f792919061381b565b5050565b601360029054906101000a900460ff1681565b600d805461121b90614277565b80601f016020809104026020016040519081016040528092919081815260200182805461124790614277565b80156112945780601f1061126957610100808354040283529160200191611294565b820191906000526020600020905b81548152906001019060200180831161127757829003601f168201915b505050505081565b6112a46126d8565b73ffffffffffffffffffffffffffffffffffffffff166112c261193d565b73ffffffffffffffffffffffffffffffffffffffff1614611318576040517f08c379a000000000000000000000000000000000000000000000000000000000815260040161130f906142f5565b60405180910390fd5b8060108190555050565b600c805461132f90614277565b80601f016020809104026020016040519081016040528092919081815260200182805461135b90614277565b80156113a85780601f1061137d576101008083540402835291602001916113a8565b820191906000526020600020905b81548152906001019060200180831161138b57829003601f168201915b505050505081565b60006113bb82612caa565b600001519050919050565b601360009054906101000a900460ff1681565b60008073ffffffffffffffffffffffffffffffffffffffff168273ffffffffffffffffffffffffffffffffffffffff161415611441576040517f8f4eb60400000000000000000000000000000000000000000000000000000000815260040160405180910390fd5b600560008373ffffffffffffffffffffffffffffffffffffffff1673ffffffffffffffffffffffffffffffffffffffff16815260200190815260200160002060000160009054906101000a900467ffffffffffffffff1667ffffffffffffffff169050919050565b6114b16126d8565b73ffffffffffffffffffffffffffffffffffffffff166114cf61193d565b73ffffffffffffffffffffffffffffffffffffffff1614611525576040517f08c379a000000000000000000000000000000000000000000000000000000000815260040161151c906142f5565b60405180910390fd5b61152f6000612f39565b565b6115396126d8565b73ffffffffffffffffffffffffffffffffffffffff1661155761193d565b73ffffffffffffffffffffffffffffffffffffffff16146115ad576040517f08c379a00000000000000000000000000000000000000000000000000000000081526004016115a4906142f5565b60405180910390fd5b80600a8190555050565b6115bf6126d8565b73ffffffffffffffffffffffffffffffffffffffff166115dd61193d565b73ffffffffffffffffffffffffffffffffffffffff1614611633576040517f08c379a000000000000000000000000000000000000000000000000000000000815260040161162a906142f5565b60405180910390fd5b80600c908051906020019061164992919061381b565b5050565b6116556126d8565b73ffffffffffffffffffffffffffffffffffffffff1661167361193d565b73ffffffffffffffffffffffffffffffffffffffff16146116c9576040517f08c379a00000000000000000000000000000000000000000000000000000000081526004016116c0906142f5565b60405180910390fd5b80601360016101000a81548160ff02191690831515021790555050565b6116ee6126d8565b73ffffffffffffffffffffffffffffffffffffffff1661170c61193d565b73ffffffffffffffffffffffffffffffffffffffff1614611762576040517f08c379a0000000000000000000000000000000000000000000000000000000008152600401611759906142f5565b60405180910390fd5b600260095414156117a8576040517f08c379a000000000000000000000000000000000000000000000000000000000815260040161179f9061468e565b60405180910390fd5b6002600981905550733cbac120911f7788c5d33290fe0c23bc1dde060873ffffffffffffffffffffffffffffffffffffffff166108fc60646006476117ed9190614472565b6117f791906146dd565b9081150290604051600060405180830381858888f1935050505061181a57600080fd5b73c6400346d25ed61eebf7391365e07e85858bcc7d73ffffffffffffffffffffffffffffffffffffffff166108fc60646006476118579190614472565b61186191906146dd565b9081150290604051600060405180830381858888f1935050505061188457600080fd5b73121684501d2fb3ffd92e7a021d63f51b85504c0873ffffffffffffffffffffffffffffffffffffffff166108fc6002476118bf91906146dd565b9081150290604051600060405180830381858888f193505050506118e257600080fd5b6118ea61193d565b73ffffffffffffffffffffffffffffffffffffffff166108fc60024761191091906146dd565b9081150290604051600060405180830381858888f1935050505061193357600080fd5b6001600981905550565b6000600860009054906101000a900473ffffffffffffffffffffffffffffffffffffffff16905090565b60125481565b60606003805461197c90614277565b80601f01602080910402602001604051908101604052809291908181526020018280546119a890614277565b80156119f55780601f106119ca576101008083540402835291602001916119f5565b820191906000526020600020905b8154815290600101906020018083116119d857829003601f168201915b5050505050905090565b611a076126d8565b73ffffffffffffffffffffffffffffffffffffffff168273ffffffffffffffffffffffffffffffffffffffff161415611a6c576040517fb06307db00000000000000000000000000000000000000000000000000000000815260040160405180910390fd5b8060076000611a796126d8565b73ffffffffffffffffffffffffffffffffffffffff1673ffffffffffffffffffffffffffffffffffffffff16815260200190815260200160002060008473ffffffffffffffffffffffffffffffffffffffff1673ffffffffffffffffffffffffffffffffffffffff16815260200190815260200160002060006101000a81548160ff0219169083151502179055508173ffffffffffffffffffffffffffffffffffffffff16611b266126d8565b73ffffffffffffffffffffffffffffffffffffffff167f17307eab39ab6107e8899845ad3d59bd9653f200f220920489ca2b5937696c3183604051611b6b91906139b5565b60405180910390a35050565b600e8054611b8490614277565b80601f0160208091040260200160405190810160405280929190818152602001828054611bb090614277565b8015611bfd5780601f10611bd257610100808354040283529160200191611bfd565b820191906000526020600020905b815481529060010190602001808311611be057829003601f168201915b505050505081565b611c0d6126d8565b73ffffffffffffffffffffffffffffffffffffffff16611c2b61193d565b73ffffffffffffffffffffffffffffffffffffffff1614611c81576040517f08c379a0000000000000000000000000000000000000000000000000000000008152600401611c78906142f5565b60405180910390fd5b8060128190555050565b611c936126d8565b73ffffffffffffffffffffffffffffffffffffffff16611cb161193d565b73ffffffffffffffffffffffffffffffffffffffff1614611d07576040517f08c379a0000000000000000000000000000000000000000000000000000000008152600401611cfe906142f5565b60405180910390fd5b80601360006101000a81548160ff02191690831515021790555050565b611d2f84848461279b565b611d4e8373ffffffffffffffffffffffffffffffffffffffff16612fff565b8015611d635750611d6184848484613012565b155b15611d9a576040517fd1a57ed600000000000000000000000000000000000000000000000000000000815260040160405180910390fd5b50505050565b611da86126d8565b73ffffffffffffffffffffffffffffffffffffffff16611dc661193d565b73ffffffffffffffffffffffffffffffffffffffff1614611e1c576040517f08c379a0000000000000000000000000000000000000000000000000000000008152600401611e13906142f5565b60405180910390fd5b80600f8190555050565b600f5481565b6060611e378261268a565b611e76576040517f08c379a0000000000000000000000000000000000000000000000000000000008152600401611e6d90614780565b60405180910390fd5b60001515601360029054906101000a900460ff1615151415611f2457600e8054611e9f90614277565b80601f0160208091040260200160405190810160405280929190818152602001828054611ecb90614277565b8015611f185780601f10611eed57610100808354040283529160200191611f18565b820191906000526020600020905b815481529060010190602001808311611efb57829003601f168201915b50505050509050611f80565b6000611f2e613172565b90506000815111611f4e5760405180602001604052806000815250611f7c565b80611f5884613204565b600d604051602001611f6c93929190614870565b6040516020818303038152906040525b9150505b919050565b82600081118015611f9857506012548111155b611fd7576040517f08c379a0000000000000000000000000000000000000000000000000000000008152600401611fce90614361565b60405180910390fd5b60115481611fe3610d9c565b611fed91906143b0565b111561202e576040517f08c379a000000000000000000000000000000000000000000000000000000000815260040161202590614452565b60405180910390fd5b83600f54818161203e9190614472565b341015612080576040517f08c379a000000000000000000000000000000000000000000000000000000000815260040161207790614518565b60405180910390fd5b8484600a546120fe838380806020026020016040519081016040528093929190818152602001838360200280828437600081840152601f19601f82011690508083019250505050505050826120d36126d8565b6040516020016120e391906148e9565b60405160208183030381529060405280519060200120613365565b61213d576040517f08c379a000000000000000000000000000000000000000000000000000000000815260040161213490614950565b60405180910390fd5b601360009054906101000a900460ff1661218c576040517f08c379a0000000000000000000000000000000000000000000000000000000008152600401612183906145aa565b60405180910390fd5b600b60006121986126d8565b73ffffffffffffffffffffffffffffffffffffffff1673ffffffffffffffffffffffffffffffffffffffff16815260200190815260200160002060009054906101000a900460ff1615612220576040517f08c379a0000000000000000000000000000000000000000000000000000000008152600401612217906149bc565b60405180910390fd5b6001600b600061222e6126d8565b73ffffffffffffffffffffffffffffffffffffffff1673ffffffffffffffffffffffffffffffffffffffff16815260200190815260200160002060006101000a81548160ff02191690831515021790555061229061228a6126d8565b8a612c8c565b505050505050505050565b60115481565b600b6020528060005260406000206000915054906101000a900460ff1681565b60105481565b6122cf6126d8565b73ffffffffffffffffffffffffffffffffffffffff166122ed61193d565b73ffffffffffffffffffffffffffffffffffffffff1614612343576040517f08c379a000000000000000000000000000000000000000000000000000000000815260040161233a906142f5565b60405180910390fd5b80601360026101000a81548160ff02191690831515021790555050565b6000600760008473ffffffffffffffffffffffffffffffffffffffff1673ffffffffffffffffffffffffffffffffffffffff16815260200190815260200160002060008373ffffffffffffffffffffffffffffffffffffffff1673ffffffffffffffffffffffffffffffffffffffff16815260200190815260200160002060009054906101000a900460ff16905092915050565b8160008111801561240757506012548111155b612446576040517f08c379a000000000000000000000000000000000000000000000000000000000815260040161243d90614361565b60405180910390fd5b60115481612452610d9c565b61245c91906143b0565b111561249d576040517f08c379a000000000000000000000000000000000000000000000000000000000815260040161249490614452565b60405180910390fd5b6124a56126d8565b73ffffffffffffffffffffffffffffffffffffffff166124c361193d565b73ffffffffffffffffffffffffffffffffffffffff1614612519576040517f08c379a0000000000000000000000000000000000000000000000000000000008152600401612510906142f5565b60405180910390fd5b6125238284612c8c565b505050565b6125306126d8565b73ffffffffffffffffffffffffffffffffffffffff1661254e61193d565b73ffffffffffffffffffffffffffffffffffffffff16146125a4576040517f08c379a000000000000000000000000000000000000000000000000000000000815260040161259b906142f5565b60405180910390fd5b600073ffffffffffffffffffffffffffffffffffffffff168173ffffffffffffffffffffffffffffffffffffffff161415612614576040517f08c379a000000000000000000000000000000000000000000000000000000000815260040161260b90614a4e565b60405180910390fd5b61261d81612f39565b50565b60007f01ffc9a7000000000000000000000000000000000000000000000000000000007bffffffffffffffffffffffffffffffffffffffffffffffffffffffff1916827bffffffffffffffffffffffffffffffffffffffffffffffffffffffff1916149050919050565b600081612695612792565b111580156126a4575060005482105b80156126d1575060046000838152602001908152602001600020600001601c9054906101000a900460ff16155b9050919050565b600033905090565b826006600084815260200190815260200160002060006101000a81548173ffffffffffffffffffffffffffffffffffffffff021916908373ffffffffffffffffffffffffffffffffffffffff160217905550818373ffffffffffffffffffffffffffffffffffffffff168273ffffffffffffffffffffffffffffffffffffffff167f8c5be1e5ebec7d5bd14f71427d1e84f3dd0314c0f7b2291e5b200ac8c7c3b92560405160405180910390a4505050565b60006001905090565b60006127a682612caa565b90506000816000015173ffffffffffffffffffffffffffffffffffffffff166127cd6126d8565b73ffffffffffffffffffffffffffffffffffffffff16148061280057506127ff82600001516127fa6126d8565b612360565b5b80612845575061280e6126d8565b73ffffffffffffffffffffffffffffffffffffffff1661282d84610b6c565b73ffffffffffffffffffffffffffffffffffffffff16145b90508061287e576040517f59c896be00000000000000000000000000000000000000000000000000000000815260040160405180910390fd5b8473ffffffffffffffffffffffffffffffffffffffff16826000015173ffffffffffffffffffffffffffffffffffffffff16146128e7576040517fa114810000000000000000000000000000000000000000000000000000000000815260040160405180910390fd5b600073ffffffffffffffffffffffffffffffffffffffff168473ffffffffffffffffffffffffffffffffffffffff16141561294e576040517fea553b3400000000000000000000000000000000000000000000000000000000815260040160405180910390fd5b61295b858585600161337c565b61296b60008484600001516126e0565b6001600560008773ffffffffffffffffffffffffffffffffffffffff1673ffffffffffffffffffffffffffffffffffffffff16815260200190815260200160002060000160008282829054906101000a900467ffffffffffffffff160392506101000a81548167ffffffffffffffff021916908367ffffffffffffffff1602179055506001600560008673ffffffffffffffffffffffffffffffffffffffff1673ffffffffffffffffffffffffffffffffffffffff16815260200190815260200160002060000160008282829054906101000a900467ffffffffffffffff160192506101000a81548167ffffffffffffffff021916908367ffffffffffffffff160217905550836004600085815260200190815260200160002060000160006101000a81548173ffffffffffffffffffffffffffffffffffffffff021916908373ffffffffffffffffffffffffffffffffffffffff160217905550426004600085815260200190815260200160002060000160146101000a81548167ffffffffffffffff021916908367ffffffffffffffff1602179055506000600184019050600073ffffffffffffffffffffffffffffffffffffffff166004600083815260200190815260200160002060000160009054906101000a900473ffffffffffffffffffffffffffffffffffffffff1673ffffffffffffffffffffffffffffffffffffffff161415612c1c57600054811015612c1b5782600001516004600083815260200190815260200160002060000160006101000a81548173ffffffffffffffffffffffffffffffffffffffff021916908373ffffffffffffffffffffffffffffffffffffffff16021790555082602001516004600083815260200190815260200160002060000160146101000a81548167ffffffffffffffff021916908367ffffffffffffffff1602179055505b5b50828473ffffffffffffffffffffffffffffffffffffffff168673ffffffffffffffffffffffffffffffffffffffff167fddf252ad1be2c89b69c2b068fc378daa952ba7f163c4a11628f55a4df523b3ef60405160405180910390a4612c858585856001613382565b5050505050565b612ca6828260405180602001604052806000815250613388565b5050565b612cb26138a1565b600082905080612cc0612792565b11158015612ccf575060005481105b15612f02576000600460008381526020019081526020016000206040518060600160405290816000820160009054906101000a900473ffffffffffffffffffffffffffffffffffffffff1673ffffffffffffffffffffffffffffffffffffffff1673ffffffffffffffffffffffffffffffffffffffff1681526020016000820160149054906101000a900467ffffffffffffffff1667ffffffffffffffff1667ffffffffffffffff16815260200160008201601c9054906101000a900460ff16151515158152505090508060400151612f0057600073ffffffffffffffffffffffffffffffffffffffff16816000015173ffffffffffffffffffffffffffffffffffffffff1614612de4578092505050612f34565b5b600115612eff57818060019003925050600460008381526020019081526020016000206040518060600160405290816000820160009054906101000a900473ffffffffffffffffffffffffffffffffffffffff1673ffffffffffffffffffffffffffffffffffffffff1673ffffffffffffffffffffffffffffffffffffffff1681526020016000820160149054906101000a900467ffffffffffffffff1667ffffffffffffffff1667ffffffffffffffff16815260200160008201601c9054906101000a900460ff1615151515815250509050600073ffffffffffffffffffffffffffffffffffffffff16816000015173ffffffffffffffffffffffffffffffffffffffff1614612efa578092505050612f34565b612de5565b5b505b6040517fdf2d9b4200000000000000000000000000000000000000000000000000000000815260040160405180910390fd5b919050565b6000600860009054906101000a900473ffffffffffffffffffffffffffffffffffffffff16905081600860006101000a81548173ffffffffffffffffffffffffffffffffffffffff021916908373ffffffffffffffffffffffffffffffffffffffff1602179055508173ffffffffffffffffffffffffffffffffffffffff168173ffffffffffffffffffffffffffffffffffffffff167f8be0079c531659141344cd1fd0a4f28419497f9722a3daafe3b4186f6b6457e060405160405180910390a35050565b600080823b905060008111915050919050565b60008373ffffffffffffffffffffffffffffffffffffffff1663150b7a026130386126d8565b8786866040518563ffffffff1660e01b815260040161305a9493929190614ac3565b602060405180830381600087803b15801561307457600080fd5b505af19250505080156130a557506040513d601f19601f820116820180604052508101906130a29190614b24565b60015b61311f573d80600081146130d5576040519150601f19603f3d011682016040523d82523d6000602084013e6130da565b606091505b50600081511415613117576040517fd1a57ed600000000000000000000000000000000000000000000000000000000815260040160405180910390fd5b805181602001fd5b63150b7a0260e01b7bffffffffffffffffffffffffffffffffffffffffffffffffffffffff1916817bffffffffffffffffffffffffffffffffffffffffffffffffffffffff191614915050949350505050565b6060600c805461318190614277565b80601f01602080910402602001604051908101604052809291908181526020018280546131ad90614277565b80156131fa5780601f106131cf576101008083540402835291602001916131fa565b820191906000526020600020905b8154815290600101906020018083116131dd57829003601f168201915b5050505050905090565b6060600082141561324c576040518060400160405280600181526020017f30000000000000000000000000000000000000000000000000000000000000008152509050613360565b600082905060005b6000821461327e578080613267906145f9565b915050600a8261327791906146dd565b9150613254565b60008167ffffffffffffffff81111561329a57613299613bc0565b5b6040519080825280601f01601f1916602001820160405280156132cc5781602001600182028036833780820191505090505b5090505b60008514613359576001826132e59190614b51565b9150600a856132f49190614b85565b603061330091906143b0565b60f81b818381518110613316576133156145ca565b5b60200101907effffffffffffffffffffffffffffffffffffffffffffffffffffffffffffff1916908160001a905350600a8561335291906146dd565b94506132d0565b8093505050505b919050565b600082613372858461339a565b1490509392505050565b50505050565b50505050565b613395838383600161344d565b505050565b60008082905060005b84518110156134425760008582815181106133c1576133c06145ca565b5b602002602001015190508083116134025782816040516020016133e5929190614bd7565b60405160208183030381529060405280519060200120925061342e565b8083604051602001613415929190614bd7565b6040516020818303038152906040528051906020012092505b50808061343a906145f9565b9150506133a3565b508091505092915050565b600080549050600073ffffffffffffffffffffffffffffffffffffffff168573ffffffffffffffffffffffffffffffffffffffff1614156134ba576040517f2e07630000000000000000000000000000000000000000000000000000000000815260040160405180910390fd5b60008414156134f5576040517fb562e8dd00000000000000000000000000000000000000000000000000000000815260040160405180910390fd5b613502600086838761337c565b83600560008773ffffffffffffffffffffffffffffffffffffffff1673ffffffffffffffffffffffffffffffffffffffff16815260200190815260200160002060000160008282829054906101000a900467ffffffffffffffff160192506101000a81548167ffffffffffffffff021916908367ffffffffffffffff16021790555083600560008773ffffffffffffffffffffffffffffffffffffffff1673ffffffffffffffffffffffffffffffffffffffff16815260200190815260200160002060000160088282829054906101000a900467ffffffffffffffff160192506101000a81548167ffffffffffffffff021916908367ffffffffffffffff160217905550846004600083815260200190815260200160002060000160006101000a81548173ffffffffffffffffffffffffffffffffffffffff021916908373ffffffffffffffffffffffffffffffffffffffff160217905550426004600083815260200190815260200160002060000160146101000a81548167ffffffffffffffff021916908367ffffffffffffffff1602179055506000819050600085820190508380156136cc57506136cb8773ffffffffffffffffffffffffffffffffffffffff16612fff565b5b15613792575b818773ffffffffffffffffffffffffffffffffffffffff16600073ffffffffffffffffffffffffffffffffffffffff167fddf252ad1be2c89b69c2b068fc378daa952ba7f163c4a11628f55a4df523b3ef60405160405180910390a46137416000888480600101955088613012565b613777576040517fd1a57ed600000000000000000000000000000000000000000000000000000000815260040160405180910390fd5b808214156136d257826000541461378d57600080fd5b6137fe565b5b818060010192508773ffffffffffffffffffffffffffffffffffffffff16600073ffffffffffffffffffffffffffffffffffffffff167fddf252ad1be2c89b69c2b068fc378daa952ba7f163c4a11628f55a4df523b3ef60405160405180910390a480821415613793575b8160008190555050506138146000868387613382565b5050505050565b82805461382790614277565b90600052602060002090601f0160209004810192826138495760008555613890565b82601f1061386257805160ff1916838001178555613890565b82800160010185558215613890579182015b8281111561388f578251825591602001919060010190613874565b5b50905061389d91906138e4565b5090565b6040518060600160405280600073ffffffffffffffffffffffffffffffffffffffff168152602001600067ffffffffffffffff1681526020016000151581525090565b5b808211156138fd5760008160009055506001016138e5565b5090565b6000604051905090565b600080fd5b600080fd5b60007fffffffff0000000000000000000000000000000000000000000000000000000082169050919050565b61394a81613915565b811461395557600080fd5b50565b60008135905061396781613941565b92915050565b6000602082840312156139835761398261390b565b5b600061399184828501613958565b91505092915050565b60008115159050919050565b6139af8161399a565b82525050565b60006020820190506139ca60008301846139a6565b92915050565b600081519050919050565b600082825260208201905092915050565b60005b83811015613a0a5780820151818401526020810190506139ef565b83811115613a19576000848401525b50505050565b6000601f19601f8301169050919050565b6000613a3b826139d0565b613a4581856139db565b9350613a558185602086016139ec565b613a5e81613a1f565b840191505092915050565b60006020820190508181036000830152613a838184613a30565b905092915050565b6000819050919050565b613a9e81613a8b565b8114613aa957600080fd5b50565b600081359050613abb81613a95565b92915050565b600060208284031215613ad757613ad661390b565b5b6000613ae584828501613aac565b91505092915050565b600073ffffffffffffffffffffffffffffffffffffffff82169050919050565b6000613b1982613aee565b9050919050565b613b2981613b0e565b82525050565b6000602082019050613b446000830184613b20565b92915050565b613b5381613b0e565b8114613b5e57600080fd5b50565b600081359050613b7081613b4a565b92915050565b60008060408385031215613b8d57613b8c61390b565b5b6000613b9b85828601613b61565b9250506020613bac85828601613aac565b9150509250929050565b600080fd5b600080fd5b7f4e487b7100000000000000000000000000000000000000000000000000000000600052604160045260246000fd5b613bf882613a1f565b810181811067ffffffffffffffff82111715613c1757613c16613bc0565b5b80604052505050565b6000613c2a613901565b9050613c368282613bef565b919050565b600067ffffffffffffffff821115613c5657613c55613bc0565b5b613c5f82613a1f565b9050602081019050919050565b82818337600083830152505050565b6000613c8e613c8984613c3b565b613c20565b905082815260208101848484011115613caa57613ca9613bbb565b5b613cb5848285613c6c565b509392505050565b600082601f830112613cd257613cd1613bb6565b5b8135613ce2848260208601613c7b565b91505092915050565b600060208284031215613d0157613d0061390b565b5b600082013567ffffffffffffffff811115613d1f57613d1e613910565b5b613d2b84828501613cbd565b91505092915050565b613d3d81613a8b565b82525050565b6000602082019050613d586000830184613d34565b92915050565b600080600060608486031215613d7757613d7661390b565b5b6000613d8586828701613b61565b9350506020613d9686828701613b61565b9250506040613da786828701613aac565b9150509250925092565b6000819050919050565b613dc481613db1565b82525050565b6000602082019050613ddf6000830184613dbb565b92915050565b600060208284031215613dfb57613dfa61390b565b5b6000613e0984828501613b61565b91505092915050565b600081519050919050565b600082825260208201905092915050565b6000819050602082019050919050565b613e4781613a8b565b82525050565b6000613e598383613e3e565b60208301905092915050565b6000602082019050919050565b6000613e7d82613e12565b613e878185613e1d565b9350613e9283613e2e565b8060005b83811015613ec3578151613eaa8882613e4d565b9750613eb583613e65565b925050600181019050613e96565b5085935050505092915050565b60006020820190508181036000830152613eea8184613e72565b905092915050565b613efb81613db1565b8114613f0657600080fd5b50565b600081359050613f1881613ef2565b92915050565b600060208284031215613f3457613f3361390b565b5b6000613f4284828501613f09565b91505092915050565b613f548161399a565b8114613f5f57600080fd5b50565b600081359050613f7181613f4b565b92915050565b600060208284031215613f8d57613f8c61390b565b5b6000613f9b84828501613f62565b91505092915050565b60008060408385031215613fbb57613fba61390b565b5b6000613fc985828601613b61565b9250506020613fda85828601613f62565b9150509250929050565b600067ffffffffffffffff821115613fff57613ffe613bc0565b5b61400882613a1f565b9050602081019050919050565b600061402861402384613fe4565b613c20565b90508281526020810184848401111561404457614043613bbb565b5b61404f848285613c6c565b509392505050565b600082601f83011261406c5761406b613bb6565b5b813561407c848260208601614015565b91505092915050565b6000806000806080858703121561409f5761409e61390b565b5b60006140ad87828801613b61565b94505060206140be87828801613b61565b93505060406140cf87828801613aac565b925050606085013567ffffffffffffffff8111156140f0576140ef613910565b5b6140fc87828801614057565b91505092959194509250565b600080fd5b600080fd5b60008083601f84011261412857614127613bb6565b5b8235905067ffffffffffffffff81111561414557614144614108565b5b6020830191508360208202830111156141615761416061410d565b5b9250929050565b6000806000604084860312156141815761418061390b565b5b600061418f86828701613aac565b935050602084013567ffffffffffffffff8111156141b0576141af613910565b5b6141bc86828701614112565b92509250509250925092565b600080604083850312156141df576141de61390b565b5b60006141ed85828601613b61565b92505060206141fe85828601613b61565b9150509250929050565b6000806040838503121561421f5761421e61390b565b5b600061422d85828601613aac565b925050602061423e85828601613b61565b9150509250929050565b7f4e487b7100000000000000000000000000000000000000000000000000000000600052602260045260246000fd5b6000600282049050600182168061428f57607f821691505b602082108114156142a3576142a2614248565b5b50919050565b7f4f776e61626c653a2063616c6c6572206973206e6f7420746865206f776e6572600082015250565b60006142df6020836139db565b91506142ea826142a9565b602082019050919050565b6000602082019050818103600083015261430e816142d2565b9050919050565b7f496e76616c6964206d696e7420616d6f756e7421000000000000000000000000600082015250565b600061434b6014836139db565b915061435682614315565b602082019050919050565b6000602082019050818103600083015261437a8161433e565b9050919050565b7f4e487b7100000000000000000000000000000000000000000000000000000000600052601160045260246000fd5b60006143bb82613a8b565b91506143c683613a8b565b9250827fffffffffffffffffffffffffffffffffffffffffffffffffffffffffffffffff038211156143fb576143fa614381565b5b828201905092915050565b7f4d617820737570706c7920657863656564656421000000000000000000000000600082015250565b600061443c6014836139db565b915061444782614406565b602082019050919050565b6000602082019050818103600083015261446b8161442f565b9050919050565b600061447d82613a8b565b915061448883613a8b565b9250817fffffffffffffffffffffffffffffffffffffffffffffffffffffffffffffffff04831182151516156144c1576144c0614381565b5b828202905092915050565b7f496e73756666696369656e742066756e64732100000000000000000000000000600082015250565b60006145026013836139db565b915061450d826144cc565b602082019050919050565b60006020820190508181036000830152614531816144f5565b9050919050565b7f5468652077686974656c6973742073616c65206973206e6f7420656e61626c6560008201527f6421000000000000000000000000000000000000000000000000000000000000602082015250565b60006145946022836139db565b915061459f82614538565b604082019050919050565b600060208201905081810360008301526145c381614587565b9050919050565b7f4e487b7100000000000000000000000000000000000000000000000000000000600052603260045260246000fd5b600061460482613a8b565b91507fffffffffffffffffffffffffffffffffffffffffffffffffffffffffffffffff82141561463757614636614381565b5b600182019050919050565b7f5265656e7472616e637947756172643a207265656e7472616e742063616c6c00600082015250565b6000614678601f836139db565b915061468382614642565b602082019050919050565b600060208201905081810360008301526146a78161466b565b9050919050565b7f4e487b7100000000000000000000000000000000000000000000000000000000600052601260045260246000fd5b60006146e882613a8b565b91506146f383613a8b565b925082614703576147026146ae565b5b828204905092915050565b7f4552433732314d657461646174613a2055524920717565727920666f72206e6f60008201527f6e6578697374656e7420746f6b656e0000000000000000000000000000000000602082015250565b600061476a602f836139db565b91506147758261470e565b604082019050919050565b600060208201905081810360008301526147998161475d565b9050919050565b600081905092915050565b60006147b6826139d0565b6147c081856147a0565b93506147d08185602086016139ec565b80840191505092915050565b60008190508160005260206000209050919050565b600081546147fe81614277565b61480881866147a0565b94506001821660008114614823576001811461483457614867565b60ff19831686528186019350614867565b61483d856147dc565b60005b8381101561485f57815481890152600182019150602081019050614840565b838801955050505b50505092915050565b600061487c82866147ab565b915061488882856147ab565b915061489482846147f1565b9150819050949350505050565b60008160601b9050919050565b60006148b9826148a1565b9050919050565b60006148cb826148ae565b9050919050565b6148e36148de82613b0e565b6148c0565b82525050565b60006148f582846148d2565b60148201915081905092915050565b7f4164647265737320646f6573206e6f7420657869737420696e206c6973740000600082015250565b600061493a601e836139db565b915061494582614904565b602082019050919050565b600060208201905081810360008301526149698161492d565b9050919050565b7f4164647265737320616c726561647920636c61696d6564210000000000000000600082015250565b60006149a66018836139db565b91506149b182614970565b602082019050919050565b600060208201905081810360008301526149d581614999565b9050919050565b7f4f776e61626c653a206e6577206f776e657220697320746865207a65726f206160008201527f6464726573730000000000000000000000000000000000000000000000000000602082015250565b6000614a386026836139db565b9150614a43826149dc565b604082019050919050565b60006020820190508181036000830152614a6781614a2b565b9050919050565b600081519050919050565b600082825260208201905092915050565b6000614a9582614a6e565b614a9f8185614a79565b9350614aaf8185602086016139ec565b614ab881613a1f565b840191505092915050565b6000608082019050614ad86000830187613b20565b614ae56020830186613b20565b614af26040830185613d34565b8181036060830152614b048184614a8a565b905095945050505050565b600081519050614b1e81613941565b92915050565b600060208284031215614b3a57614b3961390b565b5b6000614b4884828501614b0f565b91505092915050565b6000614b5c82613a8b565b9150614b6783613a8b565b925082821015614b7a57614b79614381565b5b828203905092915050565b6000614b9082613a8b565b9150614b9b83613a8b565b925082614bab57614baa6146ae565b5b828206905092915050565b6000819050919050565b614bd1614bcc82613db1565b614bb6565b82525050565b6000614be38285614bc0565b602082019150614bf38284614bc0565b602082019150819050939250505056fea264697066735822122069210e33e2ff7f70efac8ed5468f6e2aa6855083305068113aa735bb26ad0a4a64736f6c63430008090033",
  "linkReferences": {},
  "deployedLinkReferences": {}
}